{
  "_format": "hh-sol-artifact-1",
  "contractName": "StreamingWallet",
  "sourceName": "contracts/StreamingWallet.sol",
  "abi": [
    {
      "inputs": [
        {
          "internalType": "address",
          "name": "_vaultAddress",
          "type": "address"
        }
      ],
      "stateMutability": "nonpayable",
      "type": "constructor"
    },
    {
      "inputs": [
        {
          "internalType": "address",
          "name": "owner",
          "type": "address"
        }
      ],
      "name": "OwnableInvalidOwner",
      "type": "error"
    },
    {
      "inputs": [
        {
          "internalType": "address",
          "name": "account",
          "type": "address"
        }
      ],
      "name": "OwnableUnauthorizedAccount",
      "type": "error"
    },
    {
      "anonymous": false,
      "inputs": [
        {
          "indexed": true,
          "internalType": "bytes32",
          "name": "contentId",
          "type": "bytes32"
        },
        {
          "indexed": false,
          "internalType": "string",
          "name": "contentIdentifier",
          "type": "string"
        },
        {
          "indexed": false,
          "internalType": "uint256",
          "name": "fullPrice",
          "type": "uint256"
        },
        {
          "indexed": false,
          "internalType": "uint256",
          "name": "totalDuration",
          "type": "uint256"
        },
        {
          "indexed": false,
          "internalType": "address",
          "name": "creator",
          "type": "address"
        }
      ],
      "name": "ContentListed",
      "type": "event"
    },
    {
      "anonymous": false,
      "inputs": [
        {
          "indexed": true,
          "internalType": "address",
          "name": "previousOwner",
          "type": "address"
        },
        {
          "indexed": true,
          "internalType": "address",
          "name": "newOwner",
          "type": "address"
        }
      ],
      "name": "OwnershipTransferred",
      "type": "event"
    },
    {
      "anonymous": false,
      "inputs": [
        {
          "indexed": true,
          "internalType": "address",
          "name": "user",
          "type": "address"
        },
        {
          "indexed": true,
          "internalType": "bytes32",
          "name": "contentId",
          "type": "bytes32"
        },
        {
          "indexed": false,
          "internalType": "uint256",
          "name": "amount",
          "type": "uint256"
        },
        {
          "indexed": false,
          "internalType": "bool",
          "name": "fromYield",
          "type": "bool"
        }
      ],
      "name": "PaymentDeducted",
      "type": "event"
    },
    {
      "anonymous": false,
      "inputs": [
        {
          "indexed": true,
          "internalType": "address",
          "name": "user",
          "type": "address"
        },
        {
          "indexed": true,
          "internalType": "bytes32",
          "name": "contentId",
          "type": "bytes32"
        },
        {
          "indexed": false,
          "internalType": "uint256",
          "name": "accumulatedTime",
          "type": "uint256"
        }
      ],
      "name": "PaymentStreamPaused",
      "type": "event"
    },
    {
      "anonymous": false,
      "inputs": [
        {
          "indexed": true,
          "internalType": "address",
          "name": "user",
          "type": "address"
        },
        {
          "indexed": true,
          "internalType": "bytes32",
          "name": "contentId",
          "type": "bytes32"
        },
        {
          "indexed": false,
          "internalType": "uint256",
          "name": "startTime",
          "type": "uint256"
        }
      ],
      "name": "PaymentStreamStarted",
      "type": "event"
    },
    {
      "anonymous": false,
      "inputs": [
        {
          "indexed": true,
          "internalType": "address",
          "name": "user",
          "type": "address"
        },
        {
          "indexed": true,
          "internalType": "bytes32",
          "name": "contentId",
          "type": "bytes32"
        },
        {
          "indexed": false,
          "internalType": "uint256",
          "name": "totalTimeConsumed",
          "type": "uint256"
        },
        {
          "indexed": false,
          "internalType": "uint256",
          "name": "amountDeducted",
          "type": "uint256"
        }
      ],
      "name": "PaymentStreamStopped",
      "type": "event"
    },
    {
      "inputs": [],
      "name": "asset",
      "outputs": [
        {
          "internalType": "contract IERC20",
          "name": "",
          "type": "address"
        }
      ],
      "stateMutability": "view",
      "type": "function"
    },
    {
      "inputs": [
        {
          "internalType": "bytes32",
          "name": "",
          "type": "bytes32"
        }
      ],
      "name": "contents",
      "outputs": [
        {
          "internalType": "bytes32",
          "name": "contentId",
          "type": "bytes32"
        },
        {
          "internalType": "string",
          "name": "contentIdentifier",
          "type": "string"
        },
        {
          "internalType": "uint256",
          "name": "fullPrice",
          "type": "uint256"
        },
        {
          "internalType": "uint256",
          "name": "totalDuration",
          "type": "uint256"
        },
        {
          "internalType": "address payable",
          "name": "creator",
          "type": "address"
        }
      ],
      "stateMutability": "view",
      "type": "function"
    },
    {
      "inputs": [
        {
          "internalType": "bytes32",
          "name": "_contentId",
          "type": "bytes32"
        },
        {
          "internalType": "string",
          "name": "_contentIdentifier",
          "type": "string"
        },
        {
          "internalType": "uint256",
          "name": "_fullPrice",
          "type": "uint256"
        },
        {
          "internalType": "uint256",
          "name": "_totalDuration",
          "type": "uint256"
        },
        {
          "internalType": "address payable",
          "name": "_creator",
          "type": "address"
        }
      ],
      "name": "listContent",
      "outputs": [],
      "stateMutability": "nonpayable",
      "type": "function"
    },
    {
      "inputs": [],
      "name": "owner",
      "outputs": [
        {
          "internalType": "address",
          "name": "",
          "type": "address"
        }
      ],
      "stateMutability": "view",
      "type": "function"
    },
    {
      "inputs": [
        {
          "internalType": "bytes32",
          "name": "_contentId",
          "type": "bytes32"
        }
      ],
      "name": "pauseStream",
      "outputs": [],
      "stateMutability": "nonpayable",
      "type": "function"
    },
    {
      "inputs": [],
      "name": "renounceOwnership",
      "outputs": [],
      "stateMutability": "nonpayable",
      "type": "function"
    },
    {
      "inputs": [
        {
          "internalType": "bytes32",
          "name": "_contentId",
          "type": "bytes32"
        }
      ],
      "name": "startStream",
      "outputs": [],
      "stateMutability": "nonpayable",
      "type": "function"
    },
    {
      "inputs": [
        {
          "internalType": "bytes32",
          "name": "_contentId",
          "type": "bytes32"
        }
      ],
      "name": "stopStream",
      "outputs": [],
      "stateMutability": "nonpayable",
      "type": "function"
    },
    {
      "inputs": [
        {
          "internalType": "address",
          "name": "newOwner",
          "type": "address"
        }
      ],
      "name": "transferOwnership",
      "outputs": [],
      "stateMutability": "nonpayable",
      "type": "function"
    },
    {
      "inputs": [
        {
          "internalType": "address",
          "name": "",
          "type": "address"
        },
        {
          "internalType": "bytes32",
          "name": "",
          "type": "bytes32"
        }
      ],
      "name": "userSessions",
      "outputs": [
        {
          "internalType": "bytes32",
          "name": "contentId",
          "type": "bytes32"
        },
        {
          "internalType": "uint256",
          "name": "startTime",
          "type": "uint256"
        },
        {
          "internalType": "uint256",
          "name": "lastUpdateTime",
          "type": "uint256"
        },
        {
          "internalType": "uint256",
          "name": "accumulatedTime",
          "type": "uint256"
        },
        {
          "internalType": "bool",
          "name": "isActive",
          "type": "bool"
        }
      ],
      "stateMutability": "view",
      "type": "function"
    },
    {
      "inputs": [],
      "name": "vault",
      "outputs": [
        {
          "internalType": "contract YieldVault",
          "name": "",
          "type": "address"
        }
      ],
      "stateMutability": "view",
      "type": "function"
    }
  ],
  "bytecode": "0x60c06040523480156200001157600080fd5b50604051620022d3380380620022d38339818101604052810190620000379190620002cf565b33600073ffffffffffffffffffffffffffffffffffffffff168173ffffffffffffffffffffffffffffffffffffffff1603620000ad5760006040517f1e4fbdf7000000000000000000000000000000000000000000000000000000008152600401620000a4919062000312565b60405180910390fd5b620000be81620001a160201b60201c565b508073ffffffffffffffffffffffffffffffffffffffff1660808173ffffffffffffffffffffffffffffffffffffffff168152505060805173ffffffffffffffffffffffffffffffffffffffff166338d52e0f6040518163ffffffff1660e01b8152600401602060405180830381865afa15801562000141573d6000803e3d6000fd5b505050506040513d601f19601f82011682018060405250810190620001679190620002cf565b73ffffffffffffffffffffffffffffffffffffffff1660a08173ffffffffffffffffffffffffffffffffffffffff1681525050506200032f565b60008060009054906101000a900473ffffffffffffffffffffffffffffffffffffffff169050816000806101000a81548173ffffffffffffffffffffffffffffffffffffffff021916908373ffffffffffffffffffffffffffffffffffffffff1602179055508173ffffffffffffffffffffffffffffffffffffffff168173ffffffffffffffffffffffffffffffffffffffff167f8be0079c531659141344cd1fd0a4f28419497f9722a3daafe3b4186f6b6457e060405160405180910390a35050565b600080fd5b600073ffffffffffffffffffffffffffffffffffffffff82169050919050565b600062000297826200026a565b9050919050565b620002a9816200028a565b8114620002b557600080fd5b50565b600081519050620002c9816200029e565b92915050565b600060208284031215620002e857620002e762000265565b5b6000620002f884828501620002b8565b91505092915050565b6200030c816200028a565b82525050565b600060208201905062000329600083018462000301565b92915050565b60805160a051611f62620003716000396000610208015260008181610b0701528181610cd201528181610d7501528181610e760152610f7a0152611f626000f3fe608060405234801561001057600080fd5b50600436106100a95760003560e01c8063c6fa159111610071578063c6fa15911461012c578063e4a9c87614610160578063f20ca12c1461017c578063f2fde38b146101b0578063f5c2af48146101cc578063fbfa77cf146101e8576100a9565b806338d52e0f146100ae5780634294c447146100cc57806350be3394146100e8578063715018a6146101045780638da5cb5b1461010e575b600080fd5b6100b6610206565b6040516100c39190611246565b60405180910390f35b6100e660048036038101906100e191906112a1565b61022a565b005b61010260048036038101906100fd91906112a1565b610404565b005b61010c610556565b005b61011661056a565b60405161012391906112ef565b60405180910390f35b61014660048036038101906101419190611336565b610593565b6040516101579594939291906113b9565b60405180910390f35b61017a600480360381019061017591906112a1565b6105e3565b005b610196600480360381019061019191906112a1565b610748565b6040516101a79594939291906114bd565b60405180910390f35b6101ca60048036038101906101c59190611517565b610826565b005b6101e660048036038101906101e19190611601565b6108ac565b005b6101f0610b05565b6040516101fd91906116bc565b60405180910390f35b7f000000000000000000000000000000000000000000000000000000000000000081565b6000600260003373ffffffffffffffffffffffffffffffffffffffff1673ffffffffffffffffffffffffffffffffffffffff1681526020019081526020016000206000838152602001908152602001600020905060008160010154116102c5576040517f08c379a00000000000000000000000000000000000000000000000000000000081526004016102bc90611723565b60405180910390fd5b6000816003015490508160040160009054906101000a900460ff1615610303578160020154426102f59190611772565b8161030091906117a6565b90505b600061030f8483610b29565b9050600081111561032657610325338583610c93565b5b833373ffffffffffffffffffffffffffffffffffffffff167fa068585e5a6f0b6a02c60b5fd64ece7813ca4b4ccdb86cfac6b1a5a3ea11804d848460405161036f9291906117da565b60405180910390a3600260003373ffffffffffffffffffffffffffffffffffffffff1673ffffffffffffffffffffffffffffffffffffffff16815260200190815260200160002060008581526020019081526020016000206000808201600090556001820160009055600282016000905560038201600090556004820160006101000a81549060ff0219169055505050505050565b6000600260003373ffffffffffffffffffffffffffffffffffffffff1673ffffffffffffffffffffffffffffffffffffffff168152602001908152602001600020600083815260200190815260200160002090508060040160009054906101000a900460ff166104a9576040517f08c379a00000000000000000000000000000000000000000000000000000000081526004016104a09061184f565b60405180910390fd5b60008160020154426104bb9190611772565b9050808260030160008282546104d191906117a6565b9250508190555060008260040160006101000a81548160ff021916908315150217905550428260020181905550823373ffffffffffffffffffffffffffffffffffffffff167fd2e465f2dca35262195c1c7d520816860eb90b62184df34c17348fab8e9d09608460030154604051610549919061186f565b60405180910390a3505050565b61055e611074565b61056860006110fb565b565b60008060009054906101000a900473ffffffffffffffffffffffffffffffffffffffff16905090565b6002602052816000526040600020602052806000526040600020600091509150508060000154908060010154908060020154908060030154908060040160009054906101000a900460ff16905085565b6000801b60016000838152602001908152602001600020600001540361063e576040517f08c379a0000000000000000000000000000000000000000000000000000000008152600401610635906118d6565b60405180910390fd5b6000600260003373ffffffffffffffffffffffffffffffffffffffff1673ffffffffffffffffffffffffffffffffffffffff168152602001908152602001600020600083815260200190815260200160002090508060040160009054906101000a900460ff16156106af5750610745565b60008160010154036106ce578181600001819055504281600101819055505b60018160040160006101000a81548160ff021916908315150217905550428160020181905550813373ffffffffffffffffffffffffffffffffffffffff167f642d0822f5689f1d2ae65aca1906fb57223f21f0735019b0025f82ca128f51d04260405161073b919061186f565b60405180910390a3505b50565b600160205280600052604060002060009150905080600001549080600101805461077190611925565b80601f016020809104026020016040519081016040528092919081815260200182805461079d90611925565b80156107ea5780601f106107bf576101008083540402835291602001916107ea565b820191906000526020600020905b8154815290600101906020018083116107cd57829003601f168201915b5050505050908060020154908060030154908060040160009054906101000a900473ffffffffffffffffffffffffffffffffffffffff16905085565b61082e611074565b600073ffffffffffffffffffffffffffffffffffffffff168173ffffffffffffffffffffffffffffffffffffffff16036108a05760006040517f1e4fbdf700000000000000000000000000000000000000000000000000000000815260040161089791906112ef565b60405180910390fd5b6108a9816110fb565b50565b6108b4611074565b6000801b86036108f9576040517f08c379a00000000000000000000000000000000000000000000000000000000081526004016108f0906119a2565b60405180910390fd5b6000821161093c576040517f08c379a000000000000000000000000000000000000000000000000000000000815260040161093390611a0e565b60405180910390fd5b600073ffffffffffffffffffffffffffffffffffffffff168173ffffffffffffffffffffffffffffffffffffffff16036109ab576040517f08c379a00000000000000000000000000000000000000000000000000000000081526004016109a290611a7a565b60405180910390fd5b6040518060a0016040528087815260200186868080601f016020809104026020016040519081016040528093929190818152602001838380828437600081840152601f19601f8201169050808301925050505050505081526020018481526020018381526020018273ffffffffffffffffffffffffffffffffffffffff1681525060016000888152602001908152602001600020600082015181600001556020820151816001019081610a5e9190611c6b565b50604082015181600201556060820151816003015560808201518160040160006101000a81548173ffffffffffffffffffffffffffffffffffffffff021916908373ffffffffffffffffffffffffffffffffffffffff160217905550905050857fc9ba0f5ef41139fe6ff97355a2f36fd9d80513a4828807e58bee7e738715b13d8686868686604051610af5959493929190611d9a565b60405180910390a2505050505050565b7f000000000000000000000000000000000000000000000000000000000000000081565b600080600160008581526020019081526020016000206040518060a001604052908160008201548152602001600182018054610b6490611925565b80601f0160208091040260200160405190810160405280929190818152602001828054610b9090611925565b8015610bdd5780601f10610bb257610100808354040283529160200191610bdd565b820191906000526020600020905b815481529060010190602001808311610bc057829003601f168201915b5050505050815260200160028201548152602001600382015481526020016004820160009054906101000a900473ffffffffffffffffffffffffffffffffffffffff1673ffffffffffffffffffffffffffffffffffffffff1673ffffffffffffffffffffffffffffffffffffffff1681525050905080606001518310610c6a578060400151915050610c8d565b8060600151838260400151610c7f9190611de8565b610c899190611e59565b9150505b92915050565b60006001600084815260200190815260200160002060040160009054906101000a900473ffffffffffffffffffffffffffffffffffffffff16905060007f000000000000000000000000000000000000000000000000000000000000000073ffffffffffffffffffffffffffffffffffffffff16637745a1db866040518263ffffffff1660e01b8152600401610d2991906112ef565b602060405180830381865afa158015610d46573d6000803e3d6000fd5b505050506040513d601f19601f82011682018060405250810190610d6a9190611e9f565b9050828110610e6b577f000000000000000000000000000000000000000000000000000000000000000073ffffffffffffffffffffffffffffffffffffffff1663b460af948484886040518463ffffffff1660e01b8152600401610dd093929190611ecc565b6020604051808303816000875af1158015610def573d6000803e3d6000fd5b505050506040513d601f19601f82011682018060405250810190610e139190611e9f565b50838573ffffffffffffffffffffffffffffffffffffffff167fd20d8e77a251f1b1c5bdda4e5739e1a5abd3257df344110d3681284a7df3ffd2856001604051610e5e929190611f03565b60405180910390a361106d565b6000811115610f68577f000000000000000000000000000000000000000000000000000000000000000073ffffffffffffffffffffffffffffffffffffffff1663b460af948284886040518463ffffffff1660e01b8152600401610ed193929190611ecc565b6020604051808303816000875af1158015610ef0573d6000803e3d6000fd5b505050506040513d601f19601f82011682018060405250810190610f149190611e9f565b50838573ffffffffffffffffffffffffffffffffffffffff167fd20d8e77a251f1b1c5bdda4e5739e1a5abd3257df344110d3681284a7df3ffd2836001604051610f5f929190611f03565b60405180910390a35b60008184610f769190611772565b90507f000000000000000000000000000000000000000000000000000000000000000073ffffffffffffffffffffffffffffffffffffffff1663b460af948285896040518463ffffffff1660e01b8152600401610fd593929190611ecc565b6020604051808303816000875af1158015610ff4573d6000803e3d6000fd5b505050506040513d601f19601f820116820180604052508101906110189190611e9f565b50848673ffffffffffffffffffffffffffffffffffffffff167fd20d8e77a251f1b1c5bdda4e5739e1a5abd3257df344110d3681284a7df3ffd2836000604051611063929190611f03565b60405180910390a3505b5050505050565b61107c6111bf565b73ffffffffffffffffffffffffffffffffffffffff1661109a61056a565b73ffffffffffffffffffffffffffffffffffffffff16146110f9576110bd6111bf565b6040517f118cdaa70000000000000000000000000000000000000000000000000000000081526004016110f091906112ef565b60405180910390fd5b565b60008060009054906101000a900473ffffffffffffffffffffffffffffffffffffffff169050816000806101000a81548173ffffffffffffffffffffffffffffffffffffffff021916908373ffffffffffffffffffffffffffffffffffffffff1602179055508173ffffffffffffffffffffffffffffffffffffffff168173ffffffffffffffffffffffffffffffffffffffff167f8be0079c531659141344cd1fd0a4f28419497f9722a3daafe3b4186f6b6457e060405160405180910390a35050565b600033905090565b600073ffffffffffffffffffffffffffffffffffffffff82169050919050565b6000819050919050565b600061120c611207611202846111c7565b6111e7565b6111c7565b9050919050565b600061121e826111f1565b9050919050565b600061123082611213565b9050919050565b61124081611225565b82525050565b600060208201905061125b6000830184611237565b92915050565b600080fd5b600080fd5b6000819050919050565b61127e8161126b565b811461128957600080fd5b50565b60008135905061129b81611275565b92915050565b6000602082840312156112b7576112b6611261565b5b60006112c58482850161128c565b91505092915050565b60006112d9826111c7565b9050919050565b6112e9816112ce565b82525050565b600060208201905061130460008301846112e0565b92915050565b611313816112ce565b811461131e57600080fd5b50565b6000813590506113308161130a565b92915050565b6000806040838503121561134d5761134c611261565b5b600061135b85828601611321565b925050602061136c8582860161128c565b9150509250929050565b61137f8161126b565b82525050565b6000819050919050565b61139881611385565b82525050565b60008115159050919050565b6113b38161139e565b82525050565b600060a0820190506113ce6000830188611376565b6113db602083018761138f565b6113e8604083018661138f565b6113f5606083018561138f565b61140260808301846113aa565b9695505050505050565b600081519050919050565b600082825260208201905092915050565b60005b8381101561144657808201518184015260208101905061142b565b60008484015250505050565b6000601f19601f8301169050919050565b600061146e8261140c565b6114788185611417565b9350611488818560208601611428565b61149181611452565b840191505092915050565b60006114a7826111c7565b9050919050565b6114b78161149c565b82525050565b600060a0820190506114d26000830188611376565b81810360208301526114e48187611463565b90506114f3604083018661138f565b611500606083018561138f565b61150d60808301846114ae565b9695505050505050565b60006020828403121561152d5761152c611261565b5b600061153b84828501611321565b91505092915050565b600080fd5b600080fd5b600080fd5b60008083601f84011261156957611568611544565b5b8235905067ffffffffffffffff81111561158657611585611549565b5b6020830191508360018202830111156115a2576115a161154e565b5b9250929050565b6115b281611385565b81146115bd57600080fd5b50565b6000813590506115cf816115a9565b92915050565b6115de8161149c565b81146115e957600080fd5b50565b6000813590506115fb816115d5565b92915050565b60008060008060008060a0878903121561161e5761161d611261565b5b600061162c89828a0161128c565b965050602087013567ffffffffffffffff81111561164d5761164c611266565b5b61165989828a01611553565b9550955050604061166c89828a016115c0565b935050606061167d89828a016115c0565b925050608061168e89828a016115ec565b9150509295509295509295565b60006116a682611213565b9050919050565b6116b68161169b565b82525050565b60006020820190506116d160008301846116ad565b92915050565b7f53747265616d206e657665722073746172746564000000000000000000000000600082015250565b600061170d601483611417565b9150611718826116d7565b602082019050919050565b6000602082019050818103600083015261173c81611700565b9050919050565b7f4e487b7100000000000000000000000000000000000000000000000000000000600052601160045260246000fd5b600061177d82611385565b915061178883611385565b92508282039050818111156117a05761179f611743565b5b92915050565b60006117b182611385565b91506117bc83611385565b92508282019050808211156117d4576117d3611743565b5b92915050565b60006040820190506117ef600083018561138f565b6117fc602083018461138f565b9392505050565b7f53747265616d206e6f7420616374697665000000000000000000000000000000600082015250565b6000611839601183611417565b915061184482611803565b602082019050919050565b600060208201905081810360008301526118688161182c565b9050919050565b6000602082019050611884600083018461138f565b92915050565b7f436f6e74656e74206e6f74206c69737465640000000000000000000000000000600082015250565b60006118c0601283611417565b91506118cb8261188a565b602082019050919050565b600060208201905081810360008301526118ef816118b3565b9050919050565b7f4e487b7100000000000000000000000000000000000000000000000000000000600052602260045260246000fd5b6000600282049050600182168061193d57607f821691505b6020821081036119505761194f6118f6565b5b50919050565b7f496e76616c696420636f6e74656e742049440000000000000000000000000000600082015250565b600061198c601283611417565b915061199782611956565b602082019050919050565b600060208201905081810360008301526119bb8161197f565b9050919050565b7f4475726174696f6e206d75737420626520706f73697469766500000000000000600082015250565b60006119f8601983611417565b9150611a03826119c2565b602082019050919050565b60006020820190508181036000830152611a27816119eb565b9050919050565b7f496e76616c69642063726561746f722061646472657373000000000000000000600082015250565b6000611a64601783611417565b9150611a6f82611a2e565b602082019050919050565b60006020820190508181036000830152611a9381611a57565b9050919050565b7f4e487b7100000000000000000000000000000000000000000000000000000000600052604160045260246000fd5b60008190508160005260206000209050919050565b60006020601f8301049050919050565b600082821b905092915050565b600060088302611b2b7fffffffffffffffffffffffffffffffffffffffffffffffffffffffffffffffff82611aee565b611b358683611aee565b95508019841693508086168417925050509392505050565b6000611b68611b63611b5e84611385565b6111e7565b611385565b9050919050565b6000819050919050565b611b8283611b4d565b611b96611b8e82611b6f565b848454611afb565b825550505050565b600090565b611bab611b9e565b611bb6818484611b79565b505050565b5b81811015611bda57611bcf600082611ba3565b600181019050611bbc565b5050565b601f821115611c1f57611bf081611ac9565b611bf984611ade565b81016020851015611c08578190505b611c1c611c1485611ade565b830182611bbb565b50505b505050565b600082821c905092915050565b6000611c4260001984600802611c24565b1980831691505092915050565b6000611c5b8383611c31565b9150826002028217905092915050565b611c748261140c565b67ffffffffffffffff811115611c8d57611c8c611a9a565b5b611c978254611925565b611ca2828285611bde565b600060209050601f831160018114611cd55760008415611cc3578287015190505b611ccd8582611c4f565b865550611d35565b601f198416611ce386611ac9565b60005b82811015611d0b57848901518255600182019150602085019450602081019050611ce6565b86831015611d285784890151611d24601f891682611c31565b8355505b6001600288020188555050505b505050505050565b82818337600083830152505050565b6000611d588385611417565b9350611d65838584611d3d565b611d6e83611452565b840190509392505050565b6000611d8482611213565b9050919050565b611d9481611d79565b82525050565b60006080820190508181036000830152611db5818789611d4c565b9050611dc4602083018661138f565b611dd1604083018561138f565b611dde6060830184611d8b565b9695505050505050565b6000611df382611385565b9150611dfe83611385565b9250828202611e0c81611385565b91508282048414831517611e2357611e22611743565b5b5092915050565b7f4e487b7100000000000000000000000000000000000000000000000000000000600052601260045260246000fd5b6000611e6482611385565b9150611e6f83611385565b925082611e7f57611e7e611e2a565b5b828204905092915050565b600081519050611e99816115a9565b92915050565b600060208284031215611eb557611eb4611261565b5b6000611ec384828501611e8a565b91505092915050565b6000606082019050611ee1600083018661138f565b611eee60208301856112e0565b611efb60408301846112e0565b949350505050565b6000604082019050611f18600083018561138f565b611f2560208301846113aa565b939250505056fea2646970667358221220ea0d124cd24109be538b0e53df24ffbb6540ff6dc5120865e6559a2b44e9110764736f6c63430008140033",
  "linkReferences": {},
  "deployedLinkReferences": {}
}