{
  "_format": "hh-sol-artifact-1",
  "contractName": "YieldVault",
  "sourceName": "contracts/YieldVault.sol",
  "abi": [
    {
      "inputs": [
        {
          "internalType": "address",
          "name": "_asset",
          "type": "address"
        },
        {
          "internalType": "address",
          "name": "presetUser",
          "type": "address"
        }
      ],
      "stateMutability": "nonpayable",
      "type": "constructor"
    },
    {
      "inputs": [
        {
          "internalType": "address",
          "name": "spender",
          "type": "address"
        },
        {
          "internalType": "uint256",
          "name": "allowance",
          "type": "uint256"
        },
        {
          "internalType": "uint256",
          "name": "needed",
          "type": "uint256"
        }
      ],
      "name": "ERC20InsufficientAllowance",
      "type": "error"
    },
    {
      "inputs": [
        {
          "internalType": "address",
          "name": "sender",
          "type": "address"
        },
        {
          "internalType": "uint256",
          "name": "balance",
          "type": "uint256"
        },
        {
          "internalType": "uint256",
          "name": "needed",
          "type": "uint256"
        }
      ],
      "name": "ERC20InsufficientBalance",
      "type": "error"
    },
    {
      "inputs": [
        {
          "internalType": "address",
          "name": "approver",
          "type": "address"
        }
      ],
      "name": "ERC20InvalidApprover",
      "type": "error"
    },
    {
      "inputs": [
        {
          "internalType": "address",
          "name": "receiver",
          "type": "address"
        }
      ],
      "name": "ERC20InvalidReceiver",
      "type": "error"
    },
    {
      "inputs": [
        {
          "internalType": "address",
          "name": "sender",
          "type": "address"
        }
      ],
      "name": "ERC20InvalidSender",
      "type": "error"
    },
    {
      "inputs": [
        {
          "internalType": "address",
          "name": "spender",
          "type": "address"
        }
      ],
      "name": "ERC20InvalidSpender",
      "type": "error"
    },
    {
      "inputs": [
        {
          "internalType": "address",
          "name": "receiver",
          "type": "address"
        },
        {
          "internalType": "uint256",
          "name": "assets",
          "type": "uint256"
        },
        {
          "internalType": "uint256",
          "name": "max",
          "type": "uint256"
        }
      ],
      "name": "ERC4626ExceededMaxDeposit",
      "type": "error"
    },
    {
      "inputs": [
        {
          "internalType": "address",
          "name": "receiver",
          "type": "address"
        },
        {
          "internalType": "uint256",
          "name": "shares",
          "type": "uint256"
        },
        {
          "internalType": "uint256",
          "name": "max",
          "type": "uint256"
        }
      ],
      "name": "ERC4626ExceededMaxMint",
      "type": "error"
    },
    {
      "inputs": [
        {
          "internalType": "address",
          "name": "owner",
          "type": "address"
        },
        {
          "internalType": "uint256",
          "name": "shares",
          "type": "uint256"
        },
        {
          "internalType": "uint256",
          "name": "max",
          "type": "uint256"
        }
      ],
      "name": "ERC4626ExceededMaxRedeem",
      "type": "error"
    },
    {
      "inputs": [
        {
          "internalType": "address",
          "name": "owner",
          "type": "address"
        },
        {
          "internalType": "uint256",
          "name": "assets",
          "type": "uint256"
        },
        {
          "internalType": "uint256",
          "name": "max",
          "type": "uint256"
        }
      ],
      "name": "ERC4626ExceededMaxWithdraw",
      "type": "error"
    },
    {
      "inputs": [
        {
          "internalType": "address",
          "name": "owner",
          "type": "address"
        }
      ],
      "name": "OwnableInvalidOwner",
      "type": "error"
    },
    {
      "inputs": [
        {
          "internalType": "address",
          "name": "account",
          "type": "address"
        }
      ],
      "name": "OwnableUnauthorizedAccount",
      "type": "error"
    },
    {
      "inputs": [
        {
          "internalType": "address",
          "name": "token",
          "type": "address"
        }
      ],
      "name": "SafeERC20FailedOperation",
      "type": "error"
    },
    {
      "anonymous": false,
      "inputs": [
        {
          "indexed": true,
          "internalType": "address",
          "name": "owner",
          "type": "address"
        },
        {
          "indexed": true,
          "internalType": "address",
          "name": "spender",
          "type": "address"
        },
        {
          "indexed": false,
          "internalType": "uint256",
          "name": "value",
          "type": "uint256"
        }
      ],
      "name": "Approval",
      "type": "event"
    },
    {
      "anonymous": false,
      "inputs": [
        {
          "indexed": true,
          "internalType": "address",
          "name": "sender",
          "type": "address"
        },
        {
          "indexed": true,
          "internalType": "address",
          "name": "owner",
          "type": "address"
        },
        {
          "indexed": false,
          "internalType": "uint256",
          "name": "assets",
          "type": "uint256"
        },
        {
          "indexed": false,
          "internalType": "uint256",
          "name": "shares",
          "type": "uint256"
        }
      ],
      "name": "Deposit",
      "type": "event"
    },
    {
      "anonymous": false,
      "inputs": [
        {
          "indexed": true,
          "internalType": "address",
          "name": "previousOwner",
          "type": "address"
        },
        {
          "indexed": true,
          "internalType": "address",
          "name": "newOwner",
          "type": "address"
        }
      ],
      "name": "OwnershipTransferred",
      "type": "event"
    },
    {
      "anonymous": false,
      "inputs": [
        {
          "indexed": true,
          "internalType": "address",
          "name": "from",
          "type": "address"
        },
        {
          "indexed": true,
          "internalType": "address",
          "name": "to",
          "type": "address"
        },
        {
          "indexed": false,
          "internalType": "uint256",
          "name": "value",
          "type": "uint256"
        }
      ],
      "name": "Transfer",
      "type": "event"
    },
    {
      "anonymous": false,
      "inputs": [
        {
          "indexed": true,
          "internalType": "address",
          "name": "sender",
          "type": "address"
        },
        {
          "indexed": true,
          "internalType": "address",
          "name": "receiver",
          "type": "address"
        },
        {
          "indexed": true,
          "internalType": "address",
          "name": "owner",
          "type": "address"
        },
        {
          "indexed": false,
          "internalType": "uint256",
          "name": "assets",
          "type": "uint256"
        },
        {
          "indexed": false,
          "internalType": "uint256",
          "name": "shares",
          "type": "uint256"
        }
      ],
      "name": "Withdraw",
      "type": "event"
    },
    {
      "inputs": [
        {
          "internalType": "uint256",
          "name": "amount",
          "type": "uint256"
        }
      ],
      "name": "addMockYield",
      "outputs": [],
      "stateMutability": "nonpayable",
      "type": "function"
    },
    {
      "inputs": [
        {
          "internalType": "address",
          "name": "owner",
          "type": "address"
        },
        {
          "internalType": "address",
          "name": "spender",
          "type": "address"
        }
      ],
      "name": "allowance",
      "outputs": [
        {
          "internalType": "uint256",
          "name": "",
          "type": "uint256"
        }
      ],
      "stateMutability": "view",
      "type": "function"
    },
    {
      "inputs": [
        {
          "internalType": "address",
          "name": "spender",
          "type": "address"
        },
        {
          "internalType": "uint256",
          "name": "value",
          "type": "uint256"
        }
      ],
      "name": "approve",
      "outputs": [
        {
          "internalType": "bool",
          "name": "",
          "type": "bool"
        }
      ],
      "stateMutability": "nonpayable",
      "type": "function"
    },
    {
      "inputs": [],
      "name": "asset",
      "outputs": [
        {
          "internalType": "address",
          "name": "",
          "type": "address"
        }
      ],
      "stateMutability": "view",
      "type": "function"
    },
    {
      "inputs": [
        {
          "internalType": "address",
          "name": "account",
          "type": "address"
        }
      ],
      "name": "balanceOf",
      "outputs": [
        {
          "internalType": "uint256",
          "name": "",
          "type": "uint256"
        }
      ],
      "stateMutability": "view",
      "type": "function"
    },
    {
      "inputs": [
        {
          "internalType": "uint256",
          "name": "shares",
          "type": "uint256"
        }
      ],
      "name": "convertToAssets",
      "outputs": [
        {
          "internalType": "uint256",
          "name": "",
          "type": "uint256"
        }
      ],
      "stateMutability": "view",
      "type": "function"
    },
    {
      "inputs": [
        {
          "internalType": "uint256",
          "name": "assets",
          "type": "uint256"
        }
      ],
      "name": "convertToShares",
      "outputs": [
        {
          "internalType": "uint256",
          "name": "",
          "type": "uint256"
        }
      ],
      "stateMutability": "view",
      "type": "function"
    },
    {
      "inputs": [],
      "name": "decimals",
      "outputs": [
        {
          "internalType": "uint8",
          "name": "",
          "type": "uint8"
        }
      ],
      "stateMutability": "view",
      "type": "function"
    },
    {
      "inputs": [
        {
          "internalType": "uint256",
          "name": "assets",
          "type": "uint256"
        },
        {
          "internalType": "address",
          "name": "receiver",
          "type": "address"
        }
      ],
      "name": "deposit",
      "outputs": [
        {
          "internalType": "uint256",
          "name": "",
          "type": "uint256"
        }
      ],
      "stateMutability": "nonpayable",
      "type": "function"
    },
    {
      "inputs": [
        {
          "internalType": "address",
          "name": "",
          "type": "address"
        }
      ],
      "name": "maxDeposit",
      "outputs": [
        {
          "internalType": "uint256",
          "name": "",
          "type": "uint256"
        }
      ],
      "stateMutability": "view",
      "type": "function"
    },
    {
      "inputs": [
        {
          "internalType": "address",
          "name": "",
          "type": "address"
        }
      ],
      "name": "maxMint",
      "outputs": [
        {
          "internalType": "uint256",
          "name": "",
          "type": "uint256"
        }
      ],
      "stateMutability": "view",
      "type": "function"
    },
    {
      "inputs": [
        {
          "internalType": "address",
          "name": "owner",
          "type": "address"
        }
      ],
      "name": "maxRedeem",
      "outputs": [
        {
          "internalType": "uint256",
          "name": "",
          "type": "uint256"
        }
      ],
      "stateMutability": "view",
      "type": "function"
    },
    {
      "inputs": [
        {
          "internalType": "address",
          "name": "owner",
          "type": "address"
        }
      ],
      "name": "maxWithdraw",
      "outputs": [
        {
          "internalType": "uint256",
          "name": "",
          "type": "uint256"
        }
      ],
      "stateMutability": "view",
      "type": "function"
    },
    {
      "inputs": [
        {
          "internalType": "uint256",
          "name": "shares",
          "type": "uint256"
        },
        {
          "internalType": "address",
          "name": "receiver",
          "type": "address"
        }
      ],
      "name": "mint",
      "outputs": [
        {
          "internalType": "uint256",
          "name": "",
          "type": "uint256"
        }
      ],
      "stateMutability": "nonpayable",
      "type": "function"
    },
    {
      "inputs": [],
      "name": "name",
      "outputs": [
        {
          "internalType": "string",
          "name": "",
          "type": "string"
        }
      ],
      "stateMutability": "view",
      "type": "function"
    },
    {
      "inputs": [],
      "name": "owner",
      "outputs": [
        {
          "internalType": "address",
          "name": "",
          "type": "address"
        }
      ],
      "stateMutability": "view",
      "type": "function"
    },
    {
      "inputs": [
        {
          "internalType": "uint256",
          "name": "assets",
          "type": "uint256"
        }
      ],
      "name": "previewDeposit",
      "outputs": [
        {
          "internalType": "uint256",
          "name": "",
          "type": "uint256"
        }
      ],
      "stateMutability": "view",
      "type": "function"
    },
    {
      "inputs": [
        {
          "internalType": "uint256",
          "name": "shares",
          "type": "uint256"
        }
      ],
      "name": "previewMint",
      "outputs": [
        {
          "internalType": "uint256",
          "name": "",
          "type": "uint256"
        }
      ],
      "stateMutability": "view",
      "type": "function"
    },
    {
      "inputs": [
        {
          "internalType": "uint256",
          "name": "shares",
          "type": "uint256"
        }
      ],
      "name": "previewRedeem",
      "outputs": [
        {
          "internalType": "uint256",
          "name": "",
          "type": "uint256"
        }
      ],
      "stateMutability": "view",
      "type": "function"
    },
    {
      "inputs": [
        {
          "internalType": "uint256",
          "name": "assets",
          "type": "uint256"
        }
      ],
      "name": "previewWithdraw",
      "outputs": [
        {
          "internalType": "uint256",
          "name": "",
          "type": "uint256"
        }
      ],
      "stateMutability": "view",
      "type": "function"
    },
    {
      "inputs": [
        {
          "internalType": "address",
          "name": "",
          "type": "address"
        }
      ],
      "name": "principalOf",
      "outputs": [
        {
          "internalType": "uint256",
          "name": "",
          "type": "uint256"
        }
      ],
      "stateMutability": "view",
      "type": "function"
    },
    {
      "inputs": [
        {
          "internalType": "uint256",
          "name": "shares",
          "type": "uint256"
        },
        {
          "internalType": "address",
          "name": "receiver",
          "type": "address"
        },
        {
          "internalType": "address",
          "name": "owner",
          "type": "address"
        }
      ],
      "name": "redeem",
      "outputs": [
        {
          "internalType": "uint256",
          "name": "",
          "type": "uint256"
        }
      ],
      "stateMutability": "nonpayable",
      "type": "function"
    },
    {
      "inputs": [],
      "name": "renounceOwnership",
      "outputs": [],
      "stateMutability": "nonpayable",
      "type": "function"
    },
    {
      "inputs": [
        {
          "internalType": "address",
          "name": "user",
          "type": "address"
        }
      ],
      "name": "setupUser",
      "outputs": [],
      "stateMutability": "nonpayable",
      "type": "function"
    },
    {
      "inputs": [],
      "name": "symbol",
      "outputs": [
        {
          "internalType": "string",
          "name": "",
          "type": "string"
        }
      ],
      "stateMutability": "view",
      "type": "function"
    },
    {
      "inputs": [],
      "name": "totalAssets",
      "outputs": [
        {
          "internalType": "uint256",
          "name": "",
          "type": "uint256"
        }
      ],
      "stateMutability": "view",
      "type": "function"
    },
    {
      "inputs": [],
      "name": "totalSupply",
      "outputs": [
        {
          "internalType": "uint256",
          "name": "",
          "type": "uint256"
        }
      ],
      "stateMutability": "view",
      "type": "function"
    },
    {
      "inputs": [
        {
          "internalType": "address",
          "name": "to",
          "type": "address"
        },
        {
          "internalType": "uint256",
          "name": "value",
          "type": "uint256"
        }
      ],
      "name": "transfer",
      "outputs": [
        {
          "internalType": "bool",
          "name": "",
          "type": "bool"
        }
      ],
      "stateMutability": "nonpayable",
      "type": "function"
    },
    {
      "inputs": [
        {
          "internalType": "address",
          "name": "from",
          "type": "address"
        },
        {
          "internalType": "address",
          "name": "to",
          "type": "address"
        },
        {
          "internalType": "uint256",
          "name": "value",
          "type": "uint256"
        }
      ],
      "name": "transferFrom",
      "outputs": [
        {
          "internalType": "bool",
          "name": "",
          "type": "bool"
        }
      ],
      "stateMutability": "nonpayable",
      "type": "function"
    },
    {
      "inputs": [
        {
          "internalType": "address",
          "name": "newOwner",
          "type": "address"
        }
      ],
      "name": "transferOwnership",
      "outputs": [],
      "stateMutability": "nonpayable",
      "type": "function"
    },
    {
      "inputs": [
        {
          "internalType": "uint256",
          "name": "assets",
          "type": "uint256"
        },
        {
          "internalType": "address",
          "name": "receiver",
          "type": "address"
        },
        {
          "internalType": "address",
          "name": "owner",
          "type": "address"
        }
      ],
      "name": "withdraw",
      "outputs": [
        {
          "internalType": "uint256",
          "name": "",
          "type": "uint256"
        }
      ],
      "stateMutability": "nonpayable",
      "type": "function"
    },
    {
      "inputs": [
        {
          "internalType": "address",
          "name": "user",
          "type": "address"
        }
      ],
      "name": "yieldOf",
      "outputs": [
        {
          "internalType": "uint256",
          "name": "",
          "type": "uint256"
        }
      ],
      "stateMutability": "view",
      "type": "function"
    }
  ],
  "bytecode": "0x60c06040523480156200001157600080fd5b5060405162003fe438038062003fe4833981810160405281019062000037919062000cbf565b33826040518060400160405280601281526020017f5969656c642042656172696e67205553444300000000000000000000000000008152506040518060400160405280600681526020017f79625553444300000000000000000000000000000000000000000000000000008152508160039081620000b6919062000f80565b508060049081620000c8919062000f80565b505050600080620000df836200020d60201b60201c565b9150915081620000f1576012620000f3565b805b60ff1660a08160ff16815250508273ffffffffffffffffffffffffffffffffffffffff1660808173ffffffffffffffffffffffffffffffffffffffff1681525050505050600073ffffffffffffffffffffffffffffffffffffffff168173ffffffffffffffffffffffffffffffffffffffff1603620001ac5760006040517f1e4fbdf7000000000000000000000000000000000000000000000000000000008152600401620001a3919062001078565b60405180910390fd5b620001bd816200032760201b60201c565b50600073ffffffffffffffffffffffffffffffffffffffff168173ffffffffffffffffffffffffffffffffffffffff161462000205576200020481620003ed60201b60201c565b5b5050620015d6565b6000806000808473ffffffffffffffffffffffffffffffffffffffff1660405160240160405160208183030381529060405263313ce56760e01b6020820180517bffffffffffffffffffffffffffffffffffffffffffffffffffffffff83818316178352505050506040516200028491906200110e565b600060405180830381855afa9150503d8060008114620002c1576040519150601f19603f3d011682016040523d82523d6000602084013e620002c6565b606091505b5091509150818015620002db57506020815110155b156200031857600081806020019051810190620002f9919062001158565b905060ff8016811162000316576001819450945050505062000322565b505b6000809350935050505b915091565b6000600560009054906101000a900473ffffffffffffffffffffffffffffffffffffffff16905081600560006101000a81548173ffffffffffffffffffffffffffffffffffffffff021916908373ffffffffffffffffffffffffffffffffffffffff1602179055508173ffffffffffffffffffffffffffffffffffffffff168173ffffffffffffffffffffffffffffffffffffffff167f8be0079c531659141344cd1fd0a4f28419497f9722a3daafe3b4186f6b6457e060405160405180910390a35050565b6000620003ff6200065060201b60201c565b905060008173ffffffffffffffffffffffffffffffffffffffff166370a08231846040518263ffffffff1660e01b81526004016200043e919062001078565b602060405180830381865afa1580156200045c573d6000803e3d6000fd5b505050506040513d601f19601f8201168201806040525081019062000482919062001158565b905060008111156200064b5760006064602883620004a19190620011b9565b620004ad919062001233565b90508273ffffffffffffffffffffffffffffffffffffffff166323b872dd8530846040518463ffffffff1660e01b8152600401620004ee939291906200127c565b6020604051808303816000875af11580156200050e573d6000803e3d6000fd5b505050506040513d601f19601f82011682018060405250810190620005349190620012f6565b50600062000548826200065a60201b60201c565b905081600660008773ffffffffffffffffffffffffffffffffffffffff1673ffffffffffffffffffffffffffffffffffffffff16815260200190815260200160002081905550620005a085826200067660201b60201c565b60006064601484620005b39190620011b9565b620005bf919062001233565b90508473ffffffffffffffffffffffffffffffffffffffff166323b872dd8730846040518463ffffffff1660e01b815260040162000600939291906200127c565b6020604051808303816000875af115801562000620573d6000803e3d6000fd5b505050506040513d601f19601f82011682018060405250810190620006469190620012f6565b505050505b505050565b6000608051905090565b60006200066f8260006200070360201b60201c565b9050919050565b600073ffffffffffffffffffffffffffffffffffffffff168273ffffffffffffffffffffffffffffffffffffffff1603620006eb5760006040517fec442f05000000000000000000000000000000000000000000000000000000008152600401620006e2919062001078565b60405180910390fd5b620006ff600083836200077c60201b60201c565b5050565b60006200077462000719620009ac60201b60201c565b600a62000727919062001489565b62000737620009b160201b60201c565b620007439190620014da565b600162000755620009bb60201b60201c565b620007619190620014da565b848662000a5060201b909392919060201c565b905092915050565b600073ffffffffffffffffffffffffffffffffffffffff168373ffffffffffffffffffffffffffffffffffffffff1603620007d2578060026000828254620007c59190620014da565b92505081905550620008a8565b60008060008573ffffffffffffffffffffffffffffffffffffffff1673ffffffffffffffffffffffffffffffffffffffff1681526020019081526020016000205490508181101562000861578381836040517fe450d38c000000000000000000000000000000000000000000000000000000008152600401620008589392919062001515565b60405180910390fd5b8181036000808673ffffffffffffffffffffffffffffffffffffffff1673ffffffffffffffffffffffffffffffffffffffff16815260200190815260200160002081905550505b600073ffffffffffffffffffffffffffffffffffffffff168273ffffffffffffffffffffffffffffffffffffffff1603620008f3578060026000828254039250508190555062000940565b806000808473ffffffffffffffffffffffffffffffffffffffff1673ffffffffffffffffffffffffffffffffffffffff168152602001908152602001600020600082825401925050819055505b8173ffffffffffffffffffffffffffffffffffffffff168373ffffffffffffffffffffffffffffffffffffffff167fddf252ad1be2c89b69c2b068fc378daa952ba7f163c4a11628f55a4df523b3ef836040516200099f919062001552565b60405180910390a3505050565b600090565b6000600254905090565b6000620009cd6200065060201b60201c565b73ffffffffffffffffffffffffffffffffffffffff166370a08231306040518263ffffffff1660e01b815260040162000a07919062001078565b602060405180830381865afa15801562000a25573d6000803e3d6000fd5b505050506040513d601f19601f8201168201806040525081019062000a4b919062001158565b905090565b600062000a9462000a678362000abd60201b60201c565b801562000a8857506000848062000a835762000a8262001204565b5b868809115b62000af060201b60201c565b62000aa786868662000afc60201b60201c565b62000ab39190620014da565b9050949350505050565b60006001600283600381111562000ad95762000ad86200156f565b5b62000ae591906200159e565b60ff16149050919050565b60008115159050919050565b600080600062000b13868662000c0260201b60201c565b915091506000820362000b3e5783818162000b335762000b3262001204565b5b049250505062000bfb565b81841162000b6f5762000b6e62000b62600086146012601162000c2160201b60201c565b62000c4360201b60201c565b5b600084868809905081811183039250808203915060008560000386169050808604955080830492506001818260000304019050808402831792506000600287600302189050808702600203810290508087026002038102905080870260020381029050808702600203810290508087026002038102905080870260020381029050808402955050505050505b9392505050565b6000806000198385098385029150818110828203039250509250929050565b600062000c348462000af060201b60201c565b82841802821890509392505050565b634e487b71600052806020526024601cfd5b600080fd5b600073ffffffffffffffffffffffffffffffffffffffff82169050919050565b600062000c878262000c5a565b9050919050565b62000c998162000c7a565b811462000ca557600080fd5b50565b60008151905062000cb98162000c8e565b92915050565b6000806040838503121562000cd95762000cd862000c55565b5b600062000ce98582860162000ca8565b925050602062000cfc8582860162000ca8565b9150509250929050565b600081519050919050565b7f4e487b7100000000000000000000000000000000000000000000000000000000600052604160045260246000fd5b7f4e487b7100000000000000000000000000000000000000000000000000000000600052602260045260246000fd5b6000600282049050600182168062000d8857607f821691505b60208210810362000d9e5762000d9d62000d40565b5b50919050565b60008190508160005260206000209050919050565b60006020601f8301049050919050565b600082821b905092915050565b60006008830262000e087fffffffffffffffffffffffffffffffffffffffffffffffffffffffffffffffff8262000dc9565b62000e14868362000dc9565b95508019841693508086168417925050509392505050565b6000819050919050565b6000819050919050565b600062000e6162000e5b62000e558462000e2c565b62000e36565b62000e2c565b9050919050565b6000819050919050565b62000e7d8362000e40565b62000e9562000e8c8262000e68565b84845462000dd6565b825550505050565b600090565b62000eac62000e9d565b62000eb981848462000e72565b505050565b5b8181101562000ee15762000ed560008262000ea2565b60018101905062000ebf565b5050565b601f82111562000f305762000efa8162000da4565b62000f058462000db9565b8101602085101562000f15578190505b62000f2d62000f248562000db9565b83018262000ebe565b50505b505050565b600082821c905092915050565b600062000f556000198460080262000f35565b1980831691505092915050565b600062000f70838362000f42565b9150826002028217905092915050565b62000f8b8262000d06565b67ffffffffffffffff81111562000fa75762000fa662000d11565b5b62000fb3825462000d6f565b62000fc082828562000ee5565b600060209050601f83116001811462000ff8576000841562000fe3578287015190505b62000fef858262000f62565b8655506200105f565b601f198416620010088662000da4565b60005b8281101562001032578489015182556001820191506020850194506020810190506200100b565b868310156200105257848901516200104e601f89168262000f42565b8355505b6001600288020188555050505b505050505050565b620010728162000c7a565b82525050565b60006020820190506200108f600083018462001067565b92915050565b600081519050919050565b600081905092915050565b60005b83811015620010cb578082015181840152602081019050620010ae565b60008484015250505050565b6000620010e48262001095565b620010f08185620010a0565b935062001102818560208601620010ab565b80840191505092915050565b60006200111c8284620010d7565b915081905092915050565b620011328162000e2c565b81146200113e57600080fd5b50565b600081519050620011528162001127565b92915050565b60006020828403121562001171576200117062000c55565b5b6000620011818482850162001141565b91505092915050565b7f4e487b7100000000000000000000000000000000000000000000000000000000600052601160045260246000fd5b6000620011c68262000e2c565b9150620011d38362000e2c565b9250828202620011e38162000e2c565b91508282048414831517620011fd57620011fc6200118a565b5b5092915050565b7f4e487b7100000000000000000000000000000000000000000000000000000000600052601260045260246000fd5b6000620012408262000e2c565b91506200124d8362000e2c565b92508262001260576200125f62001204565b5b828204905092915050565b620012768162000e2c565b82525050565b600060608201905062001293600083018662001067565b620012a2602083018562001067565b620012b160408301846200126b565b949350505050565b60008115159050919050565b620012d081620012b9565b8114620012dc57600080fd5b50565b600081519050620012f081620012c5565b92915050565b6000602082840312156200130f576200130e62000c55565b5b60006200131f84828501620012df565b91505092915050565b60008160011c9050919050565b6000808291508390505b600185111562001387578086048111156200135f576200135e6200118a565b5b60018516156200136f5780820291505b80810290506200137f8562001328565b94506200133f565b94509492505050565b600082620013a2576001905062001475565b81620013b2576000905062001475565b8160018114620013cb5760028114620013d6576200140c565b600191505062001475565b60ff841115620013eb57620013ea6200118a565b5b8360020a9150848211156200140557620014046200118a565b5b5062001475565b5060208310610133831016604e8410600b8410161715620014465782820a90508381111562001440576200143f6200118a565b5b62001475565b62001455848484600162001335565b925090508184048111156200146f576200146e6200118a565b5b81810290505b9392505050565b600060ff82169050919050565b6000620014968262000e2c565b9150620014a3836200147c565b9250620014d27fffffffffffffffffffffffffffffffffffffffffffffffffffffffffffffffff848462001390565b905092915050565b6000620014e78262000e2c565b9150620014f48362000e2c565b92508282019050808211156200150f576200150e6200118a565b5b92915050565b60006060820190506200152c600083018662001067565b6200153b60208301856200126b565b6200154a60408301846200126b565b949350505050565b60006020820190506200156960008301846200126b565b92915050565b7f4e487b7100000000000000000000000000000000000000000000000000000000600052602160045260246000fd5b6000620015ab826200147c565b9150620015b8836200147c565b925082620015cb57620015ca62001204565b5b828206905092915050565b60805160a0516129e8620015fc60003960006109520152600061098401526129e86000f3fe608060405234801561001057600080fd5b50600436106101f05760003560e01c8063715018a61161010f578063ba087652116100a2578063d905777e11610071578063d905777e14610669578063dd62ed3e14610699578063ef8b30f7146106c9578063f2fde38b146106f9576101f0565b8063ba087652146105a9578063c63d75b6146105d9578063c6e6f59214610609578063ce96cb7714610639576101f0565b806395d89b41116100de57806395d89b41146104fb578063a9059cbb14610519578063b3d7f6b914610549578063b460af9414610579576101f0565b8063715018a6146104735780637745a1db1461047d5780638da5cb5b146104ad57806394bf804d146104cb576101f0565b8063313ce567116101875780634cdad506116101565780634cdad506146103b357806361e20a1c146103e35780636e553f651461041357806370a0823114610443576101f0565b8063313ce5671461032b57806338d52e0f14610349578063402d267d14610367578063445fac7714610397576101f0565b80630a28a477116101c35780630a28a4771461029157806318160ddd146102c157806323b872dd146102df5780632645b8781461030f576101f0565b806301e1d114146101f557806306fdde031461021357806307a2d13a14610231578063095ea7b314610261575b600080fd5b6101fd610715565b60405161020a91906120f8565b60405180910390f35b61021b61079d565b60405161022891906121a3565b60405180910390f35b61024b600480360381019061024691906121f6565b61082f565b60405161025891906120f8565b60405180910390f35b61027b60048036038101906102769190612281565b610843565b60405161028891906122dc565b60405180910390f35b6102ab60048036038101906102a691906121f6565b610866565b6040516102b891906120f8565b60405180910390f35b6102c961087a565b6040516102d691906120f8565b60405180910390f35b6102f960048036038101906102f491906122f7565b610884565b60405161030691906122dc565b60405180910390f35b610329600480360381019061032491906121f6565b6108b3565b005b610333610946565b6040516103409190612366565b60405180910390f35b610351610980565b60405161035e9190612390565b60405180910390f35b610381600480360381019061037c91906123ab565b6109a8565b60405161038e91906120f8565b60405180910390f35b6103b160048036038101906103ac91906123ab565b6109d2565b005b6103cd60048036038101906103c891906121f6565b6109e6565b6040516103da91906120f8565b60405180910390f35b6103fd60048036038101906103f891906123ab565b6109fa565b60405161040a91906120f8565b60405180910390f35b61042d600480360381019061042891906123d8565b610a12565b60405161043a91906120f8565b60405180910390f35b61045d600480360381019061045891906123ab565b610a94565b60405161046a91906120f8565b60405180910390f35b61047b610adc565b005b610497600480360381019061049291906123ab565b610af0565b6040516104a491906120f8565b60405180910390f35b6104b5610baa565b6040516104c29190612390565b60405180910390f35b6104e560048036038101906104e091906123d8565b610bd4565b6040516104f291906120f8565b60405180910390f35b610503610c56565b60405161051091906121a3565b60405180910390f35b610533600480360381019061052e9190612281565b610ce8565b60405161054091906122dc565b60405180910390f35b610563600480360381019061055e91906121f6565b610d0b565b60405161057091906120f8565b60405180910390f35b610593600480360381019061058e9190612418565b610d1f565b6040516105a091906120f8565b60405180910390f35b6105c360048036038101906105be9190612418565b610da3565b6040516105d091906120f8565b60405180910390f35b6105f360048036038101906105ee91906123ab565b610e27565b60405161060091906120f8565b60405180910390f35b610623600480360381019061061e91906121f6565b610e51565b60405161063091906120f8565b60405180910390f35b610653600480360381019061064e91906123ab565b610e65565b60405161066091906120f8565b60405180910390f35b610683600480360381019061067e91906123ab565b610e81565b60405161069091906120f8565b60405180910390f35b6106b360048036038101906106ae919061246b565b610e93565b6040516106c091906120f8565b60405180910390f35b6106e360048036038101906106de91906121f6565b610f1a565b6040516106f091906120f8565b60405180910390f35b610713600480360381019061070e91906123ab565b610f2e565b005b600061071f610980565b73ffffffffffffffffffffffffffffffffffffffff166370a08231306040518263ffffffff1660e01b81526004016107579190612390565b602060405180830381865afa158015610774573d6000803e3d6000fd5b505050506040513d601f19601f8201168201806040525081019061079891906124c0565b905090565b6060600380546107ac9061251c565b80601f01602080910402602001604051908101604052809291908181526020018280546107d89061251c565b80156108255780601f106107fa57610100808354040283529160200191610825565b820191906000526020600020905b81548152906001019060200180831161080857829003601f168201915b5050505050905090565b600061083c826000610fb4565b9050919050565b60008061084e61100d565b905061085b818585611015565b600191505092915050565b6000610873826001611027565b9050919050565b6000600254905090565b60008061088f61100d565b905061089c858285611080565b6108a7858585611115565b60019150509392505050565b6108bb611209565b6108c3610980565b73ffffffffffffffffffffffffffffffffffffffff166323b872dd3330846040518463ffffffff1660e01b81526004016108ff9392919061254d565b6020604051808303816000875af115801561091e573d6000803e3d6000fd5b505050506040513d601f19601f8201168201806040525081019061094291906125b0565b5050565b6000610950611290565b7f000000000000000000000000000000000000000000000000000000000000000061097b919061260c565b905090565b60007f0000000000000000000000000000000000000000000000000000000000000000905090565b60007fffffffffffffffffffffffffffffffffffffffffffffffffffffffffffffffff9050919050565b6109da611209565b6109e381611295565b50565b60006109f3826000610fb4565b9050919050565b60066020528060005260406000206000915090505481565b600080610a1e836109a8565b905080841115610a69578284826040517f79012fb2000000000000000000000000000000000000000000000000000000008152600401610a6093929190612641565b60405180910390fd5b6000610a7485610f1a565b9050610a89610a8161100d565b8587846114c8565b809250505092915050565b60008060008373ffffffffffffffffffffffffffffffffffffffff1673ffffffffffffffffffffffffffffffffffffffff168152602001908152602001600020549050919050565b610ae4611209565b610aee6000611530565b565b600080610b04610aff84610a94565b6109e6565b9050600660008473ffffffffffffffffffffffffffffffffffffffff1673ffffffffffffffffffffffffffffffffffffffff168152602001908152602001600020548111610b56576000915050610ba5565b600660008473ffffffffffffffffffffffffffffffffffffffff1673ffffffffffffffffffffffffffffffffffffffff1681526020019081526020016000205481610ba19190612678565b9150505b919050565b6000600560009054906101000a900473ffffffffffffffffffffffffffffffffffffffff16905090565b600080610be083610e27565b905080841115610c2b578284826040517f284ff667000000000000000000000000000000000000000000000000000000008152600401610c2293929190612641565b60405180910390fd5b6000610c3685610d0b565b9050610c4b610c4361100d565b8583886114c8565b809250505092915050565b606060048054610c659061251c565b80601f0160208091040260200160405190810160405280929190818152602001828054610c919061251c565b8015610cde5780601f10610cb357610100808354040283529160200191610cde565b820191906000526020600020905b815481529060010190602001808311610cc157829003601f168201915b5050505050905090565b600080610cf361100d565b9050610d00818585611115565b600191505092915050565b6000610d18826001610fb4565b9050919050565b600080610d2b83610e65565b905080851115610d76578285826040517ffe9cceec000000000000000000000000000000000000000000000000000000008152600401610d6d93929190612641565b60405180910390fd5b6000610d8186610866565b9050610d97610d8e61100d565b868689856115f6565b80925050509392505050565b600080610daf83610e81565b905080851115610dfa578285826040517fb94abeec000000000000000000000000000000000000000000000000000000008152600401610df193929190612641565b60405180910390fd5b6000610e05866109e6565b9050610e1b610e1261100d565b8686848a6115f6565b80925050509392505050565b60007fffffffffffffffffffffffffffffffffffffffffffffffffffffffffffffffff9050919050565b6000610e5e826000611027565b9050919050565b6000610e7a610e7383610a94565b6000610fb4565b9050919050565b6000610e8c82610a94565b9050919050565b6000600160008473ffffffffffffffffffffffffffffffffffffffff1673ffffffffffffffffffffffffffffffffffffffff16815260200190815260200160002060008373ffffffffffffffffffffffffffffffffffffffff1673ffffffffffffffffffffffffffffffffffffffff16815260200190815260200160002054905092915050565b6000610f27826000611027565b9050919050565b610f36611209565b600073ffffffffffffffffffffffffffffffffffffffff168173ffffffffffffffffffffffffffffffffffffffff1603610fa85760006040517f1e4fbdf7000000000000000000000000000000000000000000000000000000008152600401610f9f9190612390565b60405180910390fd5b610fb181611530565b50565b60006110056001610fc3610715565b610fcd91906126ac565b610fd5611290565b600a610fe19190612813565b610fe961087a565b610ff391906126ac565b8486611716909392919063ffffffff16565b905092915050565b600033905090565b6110228383836001611765565b505050565b6000611078611034611290565b600a6110409190612813565b61104861087a565b61105291906126ac565b600161105c610715565b61106691906126ac565b8486611716909392919063ffffffff16565b905092915050565b600061108c8484610e93565b90507fffffffffffffffffffffffffffffffffffffffffffffffffffffffffffffffff81101561110f57818110156110ff578281836040517ffb8f41b20000000000000000000000000000000000000000000000000000000081526004016110f693929190612641565b60405180910390fd5b61110e84848484036000611765565b5b50505050565b600073ffffffffffffffffffffffffffffffffffffffff168373ffffffffffffffffffffffffffffffffffffffff16036111875760006040517f96c6fd1e00000000000000000000000000000000000000000000000000000000815260040161117e9190612390565b60405180910390fd5b600073ffffffffffffffffffffffffffffffffffffffff168273ffffffffffffffffffffffffffffffffffffffff16036111f95760006040517fec442f050000000000000000000000000000000000000000000000000000000081526004016111f09190612390565b60405180910390fd5b61120483838361193c565b505050565b61121161100d565b73ffffffffffffffffffffffffffffffffffffffff1661122f610baa565b73ffffffffffffffffffffffffffffffffffffffff161461128e5761125261100d565b6040517f118cdaa70000000000000000000000000000000000000000000000000000000081526004016112859190612390565b60405180910390fd5b565b600090565b600061129f610980565b905060008173ffffffffffffffffffffffffffffffffffffffff166370a08231846040518263ffffffff1660e01b81526004016112dc9190612390565b602060405180830381865afa1580156112f9573d6000803e3d6000fd5b505050506040513d601f19601f8201168201806040525081019061131d91906124c0565b905060008111156114c35760006064602883611339919061285e565b61134391906128cf565b90508273ffffffffffffffffffffffffffffffffffffffff166323b872dd8530846040518463ffffffff1660e01b81526004016113829392919061254d565b6020604051808303816000875af11580156113a1573d6000803e3d6000fd5b505050506040513d601f19601f820116820180604052508101906113c591906125b0565b5060006113d182610f1a565b905081600660008773ffffffffffffffffffffffffffffffffffffffff1673ffffffffffffffffffffffffffffffffffffffff168152602001908152602001600020819055506114218582611b61565b60006064601484611432919061285e565b61143c91906128cf565b90508473ffffffffffffffffffffffffffffffffffffffff166323b872dd8730846040518463ffffffff1660e01b815260040161147b9392919061254d565b6020604051808303816000875af115801561149a573d6000803e3d6000fd5b505050506040513d601f19601f820116820180604052508101906114be91906125b0565b505050505b505050565b81600660008573ffffffffffffffffffffffffffffffffffffffff1673ffffffffffffffffffffffffffffffffffffffff168152602001908152602001600020600082825461151791906126ac565b9250508190555061152a84848484611be3565b50505050565b6000600560009054906101000a900473ffffffffffffffffffffffffffffffffffffffff16905081600560006101000a81548173ffffffffffffffffffffffffffffffffffffffff021916908373ffffffffffffffffffffffffffffffffffffffff1602179055508173ffffffffffffffffffffffffffffffffffffffff168173ffffffffffffffffffffffffffffffffffffffff167f8be0079c531659141344cd1fd0a4f28419497f9722a3daafe3b4186f6b6457e060405160405180910390a35050565b600061160961160485610a94565b6109e6565b905080831061165c576000600660008673ffffffffffffffffffffffffffffffffffffffff1673ffffffffffffffffffffffffffffffffffffffff16815260200190815260200160002081905550611701565b8083826116699190612678565b600660008773ffffffffffffffffffffffffffffffffffffffff1673ffffffffffffffffffffffffffffffffffffffff168152602001908152602001600020546116b3919061285e565b6116bd91906128cf565b600660008673ffffffffffffffffffffffffffffffffffffffff1673ffffffffffffffffffffffffffffffffffffffff168152602001908152602001600020819055505b61170e8686868686611c6d565b505050505050565b600061174661172483611d4d565b801561174157506000848061173c5761173b6128a0565b5b868809115b611d7b565b611751868686611d87565b61175b91906126ac565b9050949350505050565b600073ffffffffffffffffffffffffffffffffffffffff168473ffffffffffffffffffffffffffffffffffffffff16036117d75760006040517fe602df050000000000000000000000000000000000000000000000000000000081526004016117ce9190612390565b60405180910390fd5b600073ffffffffffffffffffffffffffffffffffffffff168373ffffffffffffffffffffffffffffffffffffffff16036118495760006040517f94280d620000000000000000000000000000000000000000000000000000000081526004016118409190612390565b60405180910390fd5b81600160008673ffffffffffffffffffffffffffffffffffffffff1673ffffffffffffffffffffffffffffffffffffffff16815260200190815260200160002060008573ffffffffffffffffffffffffffffffffffffffff1673ffffffffffffffffffffffffffffffffffffffff168152602001908152602001600020819055508015611936578273ffffffffffffffffffffffffffffffffffffffff168473ffffffffffffffffffffffffffffffffffffffff167f8c5be1e5ebec7d5bd14f71427d1e84f3dd0314c0f7b2291e5b200ac8c7c3b9258460405161192d91906120f8565b60405180910390a35b50505050565b600073ffffffffffffffffffffffffffffffffffffffff168373ffffffffffffffffffffffffffffffffffffffff160361198e57806002600082825461198291906126ac565b92505081905550611a61565b60008060008573ffffffffffffffffffffffffffffffffffffffff1673ffffffffffffffffffffffffffffffffffffffff16815260200190815260200160002054905081811015611a1a578381836040517fe450d38c000000000000000000000000000000000000000000000000000000008152600401611a1193929190612641565b60405180910390fd5b8181036000808673ffffffffffffffffffffffffffffffffffffffff1673ffffffffffffffffffffffffffffffffffffffff16815260200190815260200160002081905550505b600073ffffffffffffffffffffffffffffffffffffffff168273ffffffffffffffffffffffffffffffffffffffff1603611aaa5780600260008282540392505081905550611af7565b806000808473ffffffffffffffffffffffffffffffffffffffff1673ffffffffffffffffffffffffffffffffffffffff168152602001908152602001600020600082825401925050819055505b8173ffffffffffffffffffffffffffffffffffffffff168373ffffffffffffffffffffffffffffffffffffffff167fddf252ad1be2c89b69c2b068fc378daa952ba7f163c4a11628f55a4df523b3ef83604051611b5491906120f8565b60405180910390a3505050565b600073ffffffffffffffffffffffffffffffffffffffff168273ffffffffffffffffffffffffffffffffffffffff1603611bd35760006040517fec442f05000000000000000000000000000000000000000000000000000000008152600401611bca9190612390565b60405180910390fd5b611bdf6000838361193c565b5050565b611bf6611bee610980565b853085611e6f565b611c008382611b61565b8273ffffffffffffffffffffffffffffffffffffffff168473ffffffffffffffffffffffffffffffffffffffff167fdcbc1c05240f31ff3ad067ef1ee35ce4997762752e3a095284754544f4c709d78484604051611c5f929190612900565b60405180910390a350505050565b8273ffffffffffffffffffffffffffffffffffffffff168573ffffffffffffffffffffffffffffffffffffffff1614611cac57611cab838683611080565b5b611cb68382611ef1565b611cc8611cc1610980565b8584611f73565b8273ffffffffffffffffffffffffffffffffffffffff168473ffffffffffffffffffffffffffffffffffffffff168673ffffffffffffffffffffffffffffffffffffffff167ffbde797d201c681b91056529119e0b02407c7bb96a4a2c75c01fc9667232c8db8585604051611d3e929190612900565b60405180910390a45050505050565b600060016002836003811115611d6657611d65612929565b5b611d709190612958565b60ff16149050919050565b60008115159050919050565b6000806000611d968686611ff2565b9150915060008203611dbc57838181611db257611db16128a0565b5b0492505050611e68565b818411611ddc57611ddb611dd66000861460126011612011565b61202b565b5b600084868809905081811183039250808203915060008560000386169050808604955080830492506001818260000304019050808402831792506000600287600302189050808702600203810290508087026002038102905080870260020381029050808702600203810290508087026002038102905080870260020381029050808402955050505050505b9392505050565b611eeb848573ffffffffffffffffffffffffffffffffffffffff166323b872dd868686604051602401611ea49392919061254d565b604051602081830303815290604052915060e01b6020820180517bffffffffffffffffffffffffffffffffffffffffffffffffffffffff838183161783525050505061203d565b50505050565b600073ffffffffffffffffffffffffffffffffffffffff168273ffffffffffffffffffffffffffffffffffffffff1603611f635760006040517f96c6fd1e000000000000000000000000000000000000000000000000000000008152600401611f5a9190612390565b60405180910390fd5b611f6f8260008361193c565b5050565b611fed838473ffffffffffffffffffffffffffffffffffffffff1663a9059cbb8585604051602401611fa6929190612989565b604051602081830303815290604052915060e01b6020820180517bffffffffffffffffffffffffffffffffffffffffffffffffffffffff838183161783525050505061203d565b505050565b6000806000198385098385029150818110828203039250509250929050565b600061201c84611d7b565b82841802821890509392505050565b634e487b71600052806020526024601cfd5b600080602060008451602086016000885af180612060576040513d6000823e3d81fd5b3d92506000519150506000821461207b576001811415612097565b60008473ffffffffffffffffffffffffffffffffffffffff163b145b156120d957836040517f5274afe70000000000000000000000000000000000000000000000000000000081526004016120d09190612390565b60405180910390fd5b50505050565b6000819050919050565b6120f2816120df565b82525050565b600060208201905061210d60008301846120e9565b92915050565b600081519050919050565b600082825260208201905092915050565b60005b8381101561214d578082015181840152602081019050612132565b60008484015250505050565b6000601f19601f8301169050919050565b600061217582612113565b61217f818561211e565b935061218f81856020860161212f565b61219881612159565b840191505092915050565b600060208201905081810360008301526121bd818461216a565b905092915050565b600080fd5b6121d3816120df565b81146121de57600080fd5b50565b6000813590506121f0816121ca565b92915050565b60006020828403121561220c5761220b6121c5565b5b600061221a848285016121e1565b91505092915050565b600073ffffffffffffffffffffffffffffffffffffffff82169050919050565b600061224e82612223565b9050919050565b61225e81612243565b811461226957600080fd5b50565b60008135905061227b81612255565b92915050565b60008060408385031215612298576122976121c5565b5b60006122a68582860161226c565b92505060206122b7858286016121e1565b9150509250929050565b60008115159050919050565b6122d6816122c1565b82525050565b60006020820190506122f160008301846122cd565b92915050565b6000806000606084860312156123105761230f6121c5565b5b600061231e8682870161226c565b935050602061232f8682870161226c565b9250506040612340868287016121e1565b9150509250925092565b600060ff82169050919050565b6123608161234a565b82525050565b600060208201905061237b6000830184612357565b92915050565b61238a81612243565b82525050565b60006020820190506123a56000830184612381565b92915050565b6000602082840312156123c1576123c06121c5565b5b60006123cf8482850161226c565b91505092915050565b600080604083850312156123ef576123ee6121c5565b5b60006123fd858286016121e1565b925050602061240e8582860161226c565b9150509250929050565b600080600060608486031215612431576124306121c5565b5b600061243f868287016121e1565b93505060206124508682870161226c565b92505060406124618682870161226c565b9150509250925092565b60008060408385031215612482576124816121c5565b5b60006124908582860161226c565b92505060206124a18582860161226c565b9150509250929050565b6000815190506124ba816121ca565b92915050565b6000602082840312156124d6576124d56121c5565b5b60006124e4848285016124ab565b91505092915050565b7f4e487b7100000000000000000000000000000000000000000000000000000000600052602260045260246000fd5b6000600282049050600182168061253457607f821691505b602082108103612547576125466124ed565b5b50919050565b60006060820190506125626000830186612381565b61256f6020830185612381565b61257c60408301846120e9565b949350505050565b61258d816122c1565b811461259857600080fd5b50565b6000815190506125aa81612584565b92915050565b6000602082840312156125c6576125c56121c5565b5b60006125d48482850161259b565b91505092915050565b7f4e487b7100000000000000000000000000000000000000000000000000000000600052601160045260246000fd5b60006126178261234a565b91506126228361234a565b9250828201905060ff81111561263b5761263a6125dd565b5b92915050565b60006060820190506126566000830186612381565b61266360208301856120e9565b61267060408301846120e9565b949350505050565b6000612683826120df565b915061268e836120df565b92508282039050818111156126a6576126a56125dd565b5b92915050565b60006126b7826120df565b91506126c2836120df565b92508282019050808211156126da576126d96125dd565b5b92915050565b60008160011c9050919050565b6000808291508390505b600185111561273757808604811115612713576127126125dd565b5b60018516156127225780820291505b8081029050612730856126e0565b94506126f7565b94509492505050565b600082612750576001905061280c565b8161275e576000905061280c565b8160018114612774576002811461277e576127ad565b600191505061280c565b60ff8411156127905761278f6125dd565b5b8360020a9150848211156127a7576127a66125dd565b5b5061280c565b5060208310610133831016604e8410600b84101617156127e25782820a9050838111156127dd576127dc6125dd565b5b61280c565b6127ef84848460016126ed565b92509050818404811115612806576128056125dd565b5b81810290505b9392505050565b600061281e826120df565b91506128298361234a565b92506128567fffffffffffffffffffffffffffffffffffffffffffffffffffffffffffffffff8484612740565b905092915050565b6000612869826120df565b9150612874836120df565b9250828202612882816120df565b91508282048414831517612899576128986125dd565b5b5092915050565b7f4e487b7100000000000000000000000000000000000000000000000000000000600052601260045260246000fd5b60006128da826120df565b91506128e5836120df565b9250826128f5576128f46128a0565b5b828204905092915050565b600060408201905061291560008301856120e9565b61292260208301846120e9565b9392505050565b7f4e487b7100000000000000000000000000000000000000000000000000000000600052602160045260246000fd5b60006129638261234a565b915061296e8361234a565b92508261297e5761297d6128a0565b5b828206905092915050565b600060408201905061299e6000830185612381565b6129ab60208301846120e9565b939250505056fea26469706673582212204f733e06a211d14cbf5c70851f110905ef38ff50a7b18e7a037de003ede5b7de64736f6c63430008140033",
  "linkReferences": {},
  "deployedLinkReferences": {}
}