{"abi":[{"type":"constructor","inputs":[],"stateMutability":"nonpayable"},{"type":"function","name":"allowance","inputs":[{"name":"owner","type":"address","internalType":"address"},{"name":"spender","type":"address","internalType":"address"}],"outputs":[{"name":"","type":"uint256","internalType":"uint256"}],"stateMutability":"view"},{"type":"function","name":"approve","inputs":[{"name":"spender","type":"address","internalType":"address"},{"name":"value","type":"uint256","internalType":"uint256"}],"outputs":[{"name":"","type":"bool","internalType":"bool"}],"stateMutability":"nonpayable"},{"type":"function","name":"balanceOf","inputs":[{"name":"account","type":"address","internalType":"address"}],"outputs":[{"name":"","type":"uint256","internalType":"uint256"}],"stateMutability":"view"},{"type":"function","name":"decimals","inputs":[],"outputs":[{"name":"","type":"uint8","internalType":"uint8"}],"stateMutability":"pure"},{"type":"function","name":"mint","inputs":[{"name":"to","type":"address","internalType":"address"},{"name":"amount","type":"uint256","internalType":"uint256"}],"outputs":[],"stateMutability":"nonpayable"},{"type":"function","name":"mintTokens","inputs":[{"name":"to","type":"address","internalType":"address"},{"name":"amountInTokens","type":"uint256","internalType":"uint256"}],"outputs":[],"stateMutability":"nonpayable"},{"type":"function","name":"name","inputs":[],"outputs":[{"name":"","type":"string","internalType":"string"}],"stateMutability":"view"},{"type":"function","name":"owner","inputs":[],"outputs":[{"name":"","type":"address","internalType":"address"}],"stateMutability":"view"},{"type":"function","name":"publicMint","inputs":[{"name":"amount","type":"uint256","internalType":"uint256"}],"outputs":[],"stateMutability":"nonpayable"},{"type":"function","name":"renounceOwnership","inputs":[],"outputs":[],"stateMutability":"nonpayable"},{"type":"function","name":"symbol","inputs":[],"outputs":[{"name":"","type":"string","internalType":"string"}],"stateMutability":"view"},{"type":"function","name":"totalSupply","inputs":[],"outputs":[{"name":"","type":"uint256","internalType":"uint256"}],"stateMutability":"view"},{"type":"function","name":"transfer","inputs":[{"name":"to","type":"address","internalType":"address"},{"name":"value","type":"uint256","internalType":"uint256"}],"outputs":[{"name":"","type":"bool","internalType":"bool"}],"stateMutability":"nonpayable"},{"type":"function","name":"transferFrom","inputs":[{"name":"from","type":"address","internalType":"address"},{"name":"to","type":"address","internalType":"address"},{"name":"value","type":"uint256","internalType":"uint256"}],"outputs":[{"name":"","type":"bool","internalType":"bool"}],"stateMutability":"nonpayable"},{"type":"function","name":"transferOwnership","inputs":[{"name":"newOwner","type":"address","internalType":"address"}],"outputs":[],"stateMutability":"nonpayable"},{"type":"event","name":"Approval","inputs":[{"name":"owner","type":"address","indexed":true,"internalType":"address"},{"name":"spender","type":"address","indexed":true,"internalType":"address"},{"name":"value","type":"uint256","indexed":false,"internalType":"uint256"}],"anonymous":false},{"type":"event","name":"OwnershipTransferred","inputs":[{"name":"previousOwner","type":"address","indexed":true,"internalType":"address"},{"name":"newOwner","type":"address","indexed":true,"internalType":"address"}],"anonymous":false},{"type":"event","name":"Transfer","inputs":[{"name":"from","type":"address","indexed":true,"internalType":"address"},{"name":"to","type":"address","indexed":true,"internalType":"address"},{"name":"value","type":"uint256","indexed":false,"internalType":"uint256"}],"anonymous":false},{"type":"error","name":"ERC20InsufficientAllowance","inputs":[{"name":"spender","type":"address","internalType":"address"},{"name":"allowance","type":"uint256","internalType":"uint256"},{"name":"needed","type":"uint256","internalType":"uint256"}]},{"type":"error","name":"ERC20InsufficientBalance","inputs":[{"name":"sender","type":"address","internalType":"address"},{"name":"balance","type":"uint256","internalType":"uint256"},{"name":"needed","type":"uint256","internalType":"uint256"}]},{"type":"error","name":"ERC20InvalidApprover","inputs":[{"name":"approver","type":"address","internalType":"address"}]},{"type":"error","name":"ERC20InvalidReceiver","inputs":[{"name":"receiver","type":"address","internalType":"address"}]},{"type":"error","name":"ERC20InvalidSender","inputs":[{"name":"sender","type":"address","internalType":"address"}]},{"type":"error","name":"ERC20InvalidSpender","inputs":[{"name":"spender","type":"address","internalType":"address"}]},{"type":"error","name":"OwnableInvalidOwner","inputs":[{"name":"owner","type":"address","internalType":"address"}]},{"type":"error","name":"OwnableUnauthorizedAccount","inputs":[{"name":"account","type":"address","internalType":"address"}]}],"bytecode":{"object":"0x60806040523461037a57604080519081016001600160401b0381118282101761028d576040908152600f82526e135bd8dac815195d1a195c881554d1608a1b602083015280519081016001600160401b0381118282101761028d576040526008815267135bd8dad554d11560c21b602082015281516001600160401b03811161028d57600354600181811c91168015610370575b602082101461026f57601f811161030d575b50602092601f82116001146102ac57928192935f926102a1575b50508160011b915f199060031b1c1916176003555b80516001600160401b03811161028d57600454600181811c91168015610283575b602082101461026f57601f811161020c575b50602091601f82116001146101ac579181925f926101a1575b50508160011b915f199060031b1c1916176004555b331561018e5760058054336001600160a01b03198216811790925560405191906001600160a01b03167f8be0079c531659141344cd1fd0a4f28419497f9722a3daafe3b4186f6b6457e05f80a361087d908161037f8239f35b631e4fbdf760e01b5f525f60045260245ffd5b015190505f80610120565b601f1982169260045f52805f20915f5b8581106101f4575083600195106101dc575b505050811b01600455610135565b01515f1960f88460031b161c191690555f80806101ce565b919260206001819286850151815501940192016101bc565b60045f527f8a35acfbc15ff81a39ae7d344fd709f28e8600b4aa8c65c6b64bfe7fe36bd19b601f830160051c81019160208410610265575b601f0160051c01905b81811061025a5750610107565b5f815560010161024d565b9091508190610244565b634e487b7160e01b5f52602260045260245ffd5b90607f16906100f5565b634e487b7160e01b5f52604160045260245ffd5b015190505f806100bf565b601f1982169360035f52805f20915f5b8681106102f557508360019596106102dd575b505050811b016003556100d4565b01515f1960f88460031b161c191690555f80806102cf565b919260206001819286850151815501940192016102bc565b60035f527fc2575a0e9e593c00f959f8c92f12db2869c3395a3b0502d05e2516446f71f85b601f830160051c81019160208410610366575b601f0160051c01905b81811061035b57506100a5565b5f815560010161034e565b9091508190610345565b90607f1690610093565b5f80fdfe6080806040526004361015610012575f80fd5b5f3560e01c90816306fdde03146105de57508063095ea7b31461055c57806318160ddd1461053f57806323b872dd146104605780632db1154414610443578063313ce5671461042857806340c10f19146103fb57806370a08231146103c4578063715018a6146103695780638da5cb5b1461034157806395d89b4114610226578063a9059cbb146101f5578063dd62ed3e146101a5578063f0dda65c1461014b5763f2fde38b146100c1575f80fd5b34610147576020366003190112610147576100da6106d7565b6100e2610820565b6001600160a01b0316801561013457600580546001600160a01b0319811683179091556001600160a01b03167f8be0079c531659141344cd1fd0a4f28419497f9722a3daafe3b4186f6b6457e05f80a3005b631e4fbdf760e01b5f525f60045260245ffd5b5f80fd5b34610147576040366003190112610147576101646106d7565b60243561016f610820565b620f4240810290808204620f424014901517156101915761018f916107c0565b005b634e487b7160e01b5f52601160045260245ffd5b34610147576040366003190112610147576101be6106d7565b6101c66106ed565b6001600160a01b039182165f908152600160209081526040808320949093168252928352819020549051908152f35b346101475760403660031901126101475761021b6102116106d7565b6024359033610703565b602060405160018152f35b34610147575f366003190112610147576040515f6004548060011c90600181168015610337575b6020831081146103235782855290811561030757506001146102b2575b50819003601f01601f191681019067ffffffffffffffff82118183101761029e5761029a829182604052826106ad565b0390f35b634e487b7160e01b5f52604160045260245ffd5b905060045f527f8a35acfbc15ff81a39ae7d344fd709f28e8600b4aa8c65c6b64bfe7fe36bd19b5f905b8282106102f15750602091508201018261026a565b60018160209254838588010152019101906102dc565b90506020925060ff191682840152151560051b8201018261026a565b634e487b7160e01b5f52602260045260245ffd5b91607f169161024d565b34610147575f366003190112610147576005546040516001600160a01b039091168152602090f35b34610147575f36600319011261014757610381610820565b600580546001600160a01b031981169091555f906001600160a01b03167f8be0079c531659141344cd1fd0a4f28419497f9722a3daafe3b4186f6b6457e08280a3005b34610147576020366003190112610147576001600160a01b036103e56106d7565b165f525f602052602060405f2054604051908152f35b346101475760403660031901126101475761018f6104176106d7565b61041f610820565b602435906107c0565b34610147575f36600319011261014757602060405160068152f35b346101475760203660031901126101475761018f600435336107c0565b34610147576060366003190112610147576104796106d7565b6104816106ed565b6001600160a01b0382165f818152600160209081526040808320338452909152902054909260443592915f1981106104bf575b5061021b9350610703565b8381106105245784156105115733156104fe5761021b945f52600160205260405f2060018060a01b0333165f526020528360405f2091039055846104b4565b634a1406b160e11b5f525f60045260245ffd5b63e602df0560e01b5f525f60045260245ffd5b8390637dc7a0d960e11b5f523360045260245260445260645ffd5b34610147575f366003190112610147576020600254604051908152f35b34610147576040366003190112610147576105756106d7565b602435903315610511576001600160a01b03169081156104fe57335f52600160205260405f20825f526020528060405f20556040519081527f8c5be1e5ebec7d5bd14f71427d1e84f3dd0314c0f7b2291e5b200ac8c7c3b92560203392a3602060405160018152f35b34610147575f366003190112610147575f6003548060011c906001811680156106a3575b60208310811461032357828552908115610307575060011461064e5750819003601f01601f191681019067ffffffffffffffff82118183101761029e5761029a829182604052826106ad565b905060035f527fc2575a0e9e593c00f959f8c92f12db2869c3395a3b0502d05e2516446f71f85b5f905b82821061068d5750602091508201018261026a565b6001816020925483858801015201910190610678565b91607f1691610602565b602060409281835280519182918282860152018484015e5f828201840152601f01601f1916010190565b600435906001600160a01b038216820361014757565b602435906001600160a01b038216820361014757565b6001600160a01b03169081156107ad576001600160a01b031691821561079a57815f525f60205260405f205481811061078157817fddf252ad1be2c89b69c2b068fc378daa952ba7f163c4a11628f55a4df523b3ef92602092855f525f84520360405f2055845f525f825260405f20818154019055604051908152a3565b8263391434e360e21b5f5260045260245260445260645ffd5b63ec442f0560e01b5f525f60045260245ffd5b634b637e8f60e11b5f525f60045260245ffd5b6001600160a01b031690811561079a57600254908082018092116101915760207fddf252ad1be2c89b69c2b068fc378daa952ba7f163c4a11628f55a4df523b3ef915f9360025584845283825260408420818154019055604051908152a3565b6005546001600160a01b0316330361083457565b63118cdaa760e01b5f523360045260245ffdfea2646970667358221220428604617d4185ce00c4a5fec993d0039579a6331ee4288f0ca7698795032b9d64736f6c634300081a0033","linkReferences":{}},"methodIdentifiers":{"allowance(address,address)":"dd62ed3e","approve(address,uint256)":"095ea7b3","balanceOf(address)":"70a08231","decimals()":"313ce567","mint(address,uint256)":"40c10f19","mintTokens(address,uint256)":"f0dda65c","name()":"06fdde03","owner()":"8da5cb5b","publicMint(uint256)":"2db11544","renounceOwnership()":"715018a6","symbol()":"95d89b41","totalSupply()":"18160ddd","transfer(address,uint256)":"a9059cbb","transferFrom(address,address,uint256)":"23b872dd","transferOwnership(address)":"f2fde38b"},"id":37}