{"abi":[{"type":"constructor","inputs":[{"name":"_vault","type":"address","internalType":"address"}],"stateMutability":"nonpayable"},{"type":"function","name":"getCurrentAmountOwed","inputs":[{"name":"sessionId","type":"uint256","internalType":"uint256"}],"outputs":[{"name":"amountOwed","type":"uint256","internalType":"uint256"}],"stateMutability":"view"},{"type":"function","name":"getCurrentConsumedTime","inputs":[{"name":"sessionId","type":"uint256","internalType":"uint256"}],"outputs":[{"name":"consumedSec","type":"uint256","internalType":"uint256"}],"stateMutability":"view"},{"type":"function","name":"getSession","inputs":[{"name":"sessionId","type":"uint256","internalType":"uint256"}],"outputs":[{"name":"","type":"tuple","internalType":"struct StreamingWalletV2.Session","components":[{"name":"user","type":"address","internalType":"address"},{"name":"contentId","type":"bytes32","internalType":"bytes32"},{"name":"pricePerSecond","type":"uint256","internalType":"uint256"},{"name":"consumedSec","type":"uint256","internalType":"uint256"},{"name":"status","type":"uint8","internalType":"enum StreamingWalletV2.SessionStatus"},{"name":"startTime","type":"uint256","internalType":"uint256"},{"name":"pausedAt","type":"uint256","internalType":"uint256"}]}],"stateMutability":"view"},{"type":"function","name":"getUserActiveSessions","inputs":[{"name":"user","type":"address","internalType":"address"}],"outputs":[{"name":"","type":"uint256[]","internalType":"uint256[]"}],"stateMutability":"view"},{"type":"function","name":"owner","inputs":[],"outputs":[{"name":"","type":"address","internalType":"address"}],"stateMutability":"view"},{"type":"function","name":"pauseSession","inputs":[{"name":"sessionId","type":"uint256","internalType":"uint256"}],"outputs":[],"stateMutability":"nonpayable"},{"type":"function","name":"renounceOwnership","inputs":[],"outputs":[],"stateMutability":"nonpayable"},{"type":"function","name":"resumeSession","inputs":[{"name":"sessionId","type":"uint256","internalType":"uint256"}],"outputs":[],"stateMutability":"nonpayable"},{"type":"function","name":"sessions","inputs":[{"name":"","type":"uint256","internalType":"uint256"}],"outputs":[{"name":"user","type":"address","internalType":"address"},{"name":"contentId","type":"bytes32","internalType":"bytes32"},{"name":"pricePerSecond","type":"uint256","internalType":"uint256"},{"name":"consumedSec","type":"uint256","internalType":"uint256"},{"name":"status","type":"uint8","internalType":"enum StreamingWalletV2.SessionStatus"},{"name":"startTime","type":"uint256","internalType":"uint256"},{"name":"pausedAt","type":"uint256","internalType":"uint256"}],"stateMutability":"view"},{"type":"function","name":"startSession","inputs":[{"name":"contentId","type":"bytes32","internalType":"bytes32"},{"name":"pricePerSecond","type":"uint256","internalType":"uint256"}],"outputs":[{"name":"sessionId","type":"uint256","internalType":"uint256"}],"stateMutability":"nonpayable"},{"type":"function","name":"stopSession","inputs":[{"name":"sessionId","type":"uint256","internalType":"uint256"},{"name":"consumedSec","type":"uint256","internalType":"uint256"}],"outputs":[],"stateMutability":"nonpayable"},{"type":"function","name":"transferOwnership","inputs":[{"name":"newOwner","type":"address","internalType":"address"}],"outputs":[],"stateMutability":"nonpayable"},{"type":"function","name":"userActiveSessions","inputs":[{"name":"","type":"address","internalType":"address"},{"name":"","type":"uint256","internalType":"uint256"}],"outputs":[{"name":"","type":"uint256","internalType":"uint256"}],"stateMutability":"view"},{"type":"function","name":"vault","inputs":[],"outputs":[{"name":"","type":"address","internalType":"contract IERC4626"}],"stateMutability":"view"},{"type":"event","name":"OwnershipTransferred","inputs":[{"name":"previousOwner","type":"address","indexed":true,"internalType":"address"},{"name":"newOwner","type":"address","indexed":true,"internalType":"address"}],"anonymous":false},{"type":"event","name":"SessionFinalized","inputs":[{"name":"sessionId","type":"uint256","indexed":true,"internalType":"uint256"},{"name":"user","type":"address","indexed":true,"internalType":"address"},{"name":"contentId","type":"bytes32","indexed":true,"internalType":"bytes32"},{"name":"consumedSec","type":"uint256","indexed":false,"internalType":"uint256"},{"name":"amountPaid","type":"uint256","indexed":false,"internalType":"uint256"}],"anonymous":false},{"type":"event","name":"SessionPaused","inputs":[{"name":"sessionId","type":"uint256","indexed":true,"internalType":"uint256"},{"name":"user","type":"address","indexed":true,"internalType":"address"},{"name":"consumedSecAtPause","type":"uint256","indexed":false,"internalType":"uint256"}],"anonymous":false},{"type":"event","name":"SessionResumed","inputs":[{"name":"sessionId","type":"uint256","indexed":true,"internalType":"uint256"},{"name":"user","type":"address","indexed":true,"internalType":"address"}],"anonymous":false},{"type":"event","name":"SessionStarted","inputs":[{"name":"sessionId","type":"uint256","indexed":true,"internalType":"uint256"},{"name":"user","type":"address","indexed":true,"internalType":"address"},{"name":"contentId","type":"bytes32","indexed":true,"internalType":"bytes32"},{"name":"pricePerSecond","type":"uint256","indexed":false,"internalType":"uint256"}],"anonymous":false},{"type":"error","name":"OwnableInvalidOwner","inputs":[{"name":"owner","type":"address","internalType":"address"}]},{"type":"error","name":"OwnableUnauthorizedAccount","inputs":[{"name":"account","type":"address","internalType":"address"}]},{"type":"error","name":"ReentrancyGuardReentrantCall","inputs":[]}],"bytecode":{"object":"0x60a03461013557601f6110fe38819003918201601f19168301916001600160401b038311848410176101395780849260209460405283398101031261013557516001600160a01b03811690819003610135573315610122575f8054336001600160a01b03198216811783556040519290916001600160a01b0316907f8be0079c531659141344cd1fd0a4f28419497f9722a3daafe3b4186f6b6457e09080a36001805581156100ca5750608052604051610fb0908161014e823960805181818160c80152610c220152f35b62461bcd60e51b815260206004820152602d60248201527f53747265616d696e6757616c6c65743a205661756c742063616e6e6f7420626560448201526c207a65726f206164647265737360981b6064820152608490fd5b631e4fbdf760e01b5f525f60045260245ffd5b5f80fd5b634e487b7160e01b5f52604160045260245ffdfe60806040526004361015610011575f80fd5b5f3560e01c80630974eac714610a195780631589d8f81461092f5780632f3744c914610909578063307fcdec146107e157806331c3a6121461072d578063402ff0db1461062e578063715018a6146105d757806383c4b7a3146105595780638da5cb5b146105325780638fa5cbc3146102fd578063e9fbde1d146101d8578063f2fde38b14610153578063fb832b48146100fb5763fbfa77cf146100b3575f80fd5b346100f7575f3660031901126100f7576040517f00000000000000000000000000000000000000000000000000000000000000006001600160a01b03168152602090f35b5f80fd5b346100f75760403660031901126100f757610114610d77565b6001600160a01b03165f908152600460205260409020805460243591908210156100f75760209161014491610d9a565b90549060031b1c604051908152f35b346100f75760203660031901126100f75761016c610d77565b610174610f54565b6001600160a01b031680156101c5575f80546001600160a01b03198116831782556001600160a01b0316907f8be0079c531659141344cd1fd0a4f28419497f9722a3daafe3b4186f6b6457e09080a3005b631e4fbdf760e01b5f525f60045260245ffd5b346100f75760203660031901126100f7576004356101f4610f34565b805f52600360205260405f2061021460018060a01b038254163314610dc3565b600481019060ff82541660048110156102e957600103610298578060055f920190610240825442610e1a565b9361025060038301958654610e27565b8555600260ff198254161790556006429101555554906040519182527f503ad488bfaa99f9153a20e5c0eb81612caac325c504b5351a79221286e513b360203393a360018055005b60405162461bcd60e51b8152602060048201526024808201527f53747265616d696e6757616c6c65743a2053657373696f6e206e6f7420706c6160448201526379696e6760e01b6064820152608490fd5b634e487b7160e01b5f52602160045260245ffd5b346100f75760403660031901126100f75760243560043561031c610f34565b80156104e1578115610491576002545f19811461047d57600101908160025560405161034781610e53565b33815260208101828152604082019085825260608301915f835260808401926001845260a085019142835260c08601935f8552885f52600360205260405f209660018060a01b039051166bffffffffffffffffffffffff60a01b8854161787555160018701555160028601555160038501556004840192519260048410156102e95760069360ff8019835416911617905551600584015551910155335f52600460205260405f209283549368010000000000000000851015610469578361041986610431936001602099018155610d9a565b90919082549060031b91821b915f19901b1916179055565b604051908152827f91526e3fe6ba1296b57aaa64f57e640377008bf26a39ed89c5800affcda88080853393a460018055604051908152f35b634e487b7160e01b5f52604160045260245ffd5b634e487b7160e01b5f52601160045260245ffd5b60405162461bcd60e51b815260206004820152602260248201527f53747265616d696e6757616c6c65743a205072696365206d757374206265203e604482015261020360f41b6064820152608490fd5b60405162461bcd60e51b815260206004820152602360248201527f53747265616d696e6757616c6c65743a20496e76616c696420636f6e74656e7460448201526208125160ea1b6064820152608490fd5b346100f7575f3660031901126100f7575f546040516001600160a01b039091168152602090f35b346100f75760203660031901126100f7576004355f52600360205260e060405f2060018060a01b03815416906001810154906105cb6002820154600383015460ff6004850154169160066005860154950154956040519788526020880152604087015260608601526080850190610d8d565b60a083015260c0820152f35b346100f7575f3660031901126100f7576105ef610f54565b5f80546001600160a01b0319811682556001600160a01b03167f8be0079c531659141344cd1fd0a4f28419497f9722a3daafe3b4186f6b6457e08280a3005b346100f75760203660031901126100f7575f60c060405161064e81610e53565b8281528260208201528260408201528260608201528260808201528260a082015201526004355f52600360205260e060405f206040519061068e82610e53565b60018060a01b0381541682526001810154906020830191825261071f60028201546040850190815260038301546060860190815260ff600485015416916106d9608088019384610e47565b600660058601549560a0890196875201549560c088019687526040519760018060a01b039051168852516020880152516040870152516060860152516080850190610d8d565b5160a08301525160c0820152f35b346100f75760203660031901126100f7576001600160a01b0361074e610d77565b165f52600460205260405f20604051806020835491828152019081935f5260205f20905f5b8181106107cb5750505081610789910382610e6f565b604051918291602083019060208452518091526040830191905f5b8181106107b2575050500390f35b82518452859450602093840193909201916001016107a4565b8254845260209093019260019283019201610773565b346100f75760203660031901126100f757604051632f3744c960e01b815260048035908201819052602082602481305afa9081156108fe575f916108c8575b61089792505f52600360205260405f2060405161083c81610e53565b60018060a01b0382541681526001820154602082015260c06006600284015493604084019485526003810154606085015261088160ff60048301541660808601610e47565b600581015460a085015201549101525190610e34565b6103e7810180911161047d576103e890046103e88102908082046103e8149015171561047d57602090604051908152f35b90506020823d6020116108f6575b816108e360209383610e6f565b810103126100f757610897915190610820565b3d91506108d6565b6040513d5f823e3d90fd5b346100f75760203660031901126100f7576020610927600435610e91565b604051908152f35b346100f75760203660031901126100f75760043561094b610f34565b805f52600360205260405f2061096b60018060a01b038254163314610dc3565b6004810160ff81541660048110156102e9576002036109c8575f91600691600160ff19825416179055426005820155015533907fbf30733f58d18c17a9986aab9a1d3c07aea0169423e9fcb62ed0b67f7f968b4e5f80a360018055005b60405162461bcd60e51b815260206004820152602360248201527f53747265616d696e6757616c6c65743a2053657373696f6e206e6f74207061756044820152621cd95960ea1b6064820152608490fd5b346100f75760403660031901126100f757600435602435610a38610f34565b815f52600360205260405f2090610a5960018060a01b038354163314610dc3565b600482019260ff8454166004811015806102e9576001821480928115610d69575b5015610d18576102e95715610d0d57610aa4610a9a600585015442610e1a565b6003850154610e27565b915b80151580610cff575b610cf7575b50610ac3600284015483610e34565b6103e7810180911161047d576103e89004936103e88502948086046103e8149015171561047d57826003850155600360ff198254161790555f60058401555f600684015583610bf9575b335f52600460205260405f205f5b815480821015610bec5783610b308385610d9a565b90549060031b1c14610b455750600101610b1b565b905f959293949519820191821161047d57610419610b66610b749386610d9a565b90549060031b1c9185610d9a565b8154918215610bd8576001925f190190610b8e8282610d9a565b8154905f199060031b1b19169055555b01549260405192835260208301527f49bb880b465f6fda1ebcf984eb650dac1998c42a6c61841b93fd341db96b6ea460403393a460018055005b634e487b7160e01b5f52603160045260245ffd5b5050509091600190610b9e565b604051632d182be560e21b8152600481018590523060248201523360448201526020816064815f7f00000000000000000000000000000000000000000000000000000000000000006001600160a01b03165af19081610cc8575b50610cc35760405162461bcd60e51b815260206004820152603c60248201527f53747265616d696e6757616c6c65743a205061796d656e74206661696c65642060448201527f2d20696e73756666696369656e74207661756c742062616c616e6365000000006064820152608490fd5b610b0d565b6020813d602011610cef575b81610ce160209383610e6f565b810103126100f75751610c53565b3d9150610cd4565b915084610ab4565b506003840154811015610aaf565b600383015491610aa6565b60405162461bcd60e51b815260206004820152602360248201527f53747265616d696e6757616c6c65743a2053657373696f6e206e6f742061637460448201526269766560e81b6064820152608490fd5b91505060025f911487610a7a565b600435906001600160a01b03821682036100f757565b9060048210156102e95752565b8054821015610daf575f5260205f2001905f90565b634e487b7160e01b5f52603260045260245ffd5b15610dca57565b60405162461bcd60e51b815260206004820152602260248201527f53747265616d696e6757616c6c65743a204e6f742073657373696f6e206f776e60448201526132b960f11b6064820152608490fd5b9190820391821161047d57565b9190820180921161047d57565b8181029291811591840414171561047d57565b60048210156102e95752565b60e0810190811067ffffffffffffffff82111761046957604052565b90601f8019910116810190811067ffffffffffffffff82111761046957604052565b5f52600360205260405f2060405190610ea982610e53565b80546001600160a01b031682526001810154602083015260028101546040830152600381015460608301908152600482015490926080810191610eef9060ff1683610e47565b60c0600660058501549460a0840195865201549101525160048110156102e957600114610f1b57505190565b90610f2a610f31925142610e1a565b9051610e27565b90565b600260015414610f45576002600155565b633ee5aeb560e01b5f5260045ffd5b5f546001600160a01b03163303610f6757565b63118cdaa760e01b5f523360045260245ffdfea2646970667358221220fd000bd1639c3c940ad1a266d51d35f5c5c28e1ad4ac694c4c72926d89d3a17964736f6c634300081a0033","linkReferences":{}},"methodIdentifiers":{"getCurrentAmountOwed(uint256)":"307fcdec","getCurrentConsumedTime(uint256)":"2f3744c9","getSession(uint256)":"402ff0db","getUserActiveSessions(address)":"31c3a612","owner()":"8da5cb5b","pauseSession(uint256)":"e9fbde1d","renounceOwnership()":"715018a6","resumeSession(uint256)":"1589d8f8","sessions(uint256)":"83c4b7a3","startSession(bytes32,uint256)":"8fa5cbc3","stopSession(uint256,uint256)":"0974eac7","transferOwnership(address)":"f2fde38b","userActiveSessions(address,uint256)":"fb832b48","vault()":"fbfa77cf"},"id":39}