{"abi":[{"type":"constructor","inputs":[{"name":"_asset","type":"address","internalType":"contract IERC20"},{"name":"_name","type":"string","internalType":"string"},{"name":"_symbol","type":"string","internalType":"string"},{"name":"_apyBasisPoints","type":"uint256","internalType":"uint256"}],"stateMutability":"nonpayable"},{"type":"function","name":"accumulatedYieldPerShare","inputs":[],"outputs":[{"name":"","type":"uint256","internalType":"uint256"}],"stateMutability":"view"},{"type":"function","name":"allowance","inputs":[{"name":"owner","type":"address","internalType":"address"},{"name":"spender","type":"address","internalType":"address"}],"outputs":[{"name":"","type":"uint256","internalType":"uint256"}],"stateMutability":"view"},{"type":"function","name":"approve","inputs":[{"name":"spender","type":"address","internalType":"address"},{"name":"value","type":"uint256","internalType":"uint256"}],"outputs":[{"name":"","type":"bool","internalType":"bool"}],"stateMutability":"nonpayable"},{"type":"function","name":"apyBasisPoints","inputs":[],"outputs":[{"name":"","type":"uint256","internalType":"uint256"}],"stateMutability":"view"},{"type":"function","name":"asset","inputs":[],"outputs":[{"name":"","type":"address","internalType":"address"}],"stateMutability":"view"},{"type":"function","name":"balanceOf","inputs":[{"name":"account","type":"address","internalType":"address"}],"outputs":[{"name":"","type":"uint256","internalType":"uint256"}],"stateMutability":"view"},{"type":"function","name":"convertToAssets","inputs":[{"name":"shares","type":"uint256","internalType":"uint256"}],"outputs":[{"name":"","type":"uint256","internalType":"uint256"}],"stateMutability":"view"},{"type":"function","name":"convertToShares","inputs":[{"name":"assets","type":"uint256","internalType":"uint256"}],"outputs":[{"name":"","type":"uint256","internalType":"uint256"}],"stateMutability":"view"},{"type":"function","name":"decimals","inputs":[],"outputs":[{"name":"","type":"uint8","internalType":"uint8"}],"stateMutability":"view"},{"type":"function","name":"deposit","inputs":[{"name":"assets","type":"uint256","internalType":"uint256"},{"name":"receiver","type":"address","internalType":"address"}],"outputs":[{"name":"","type":"uint256","internalType":"uint256"}],"stateMutability":"nonpayable"},{"type":"function","name":"lastYieldUpdate","inputs":[],"outputs":[{"name":"","type":"uint256","internalType":"uint256"}],"stateMutability":"view"},{"type":"function","name":"maxDeposit","inputs":[{"name":"","type":"address","internalType":"address"}],"outputs":[{"name":"","type":"uint256","internalType":"uint256"}],"stateMutability":"view"},{"type":"function","name":"maxMint","inputs":[{"name":"","type":"address","internalType":"address"}],"outputs":[{"name":"","type":"uint256","internalType":"uint256"}],"stateMutability":"view"},{"type":"function","name":"maxRedeem","inputs":[{"name":"owner","type":"address","internalType":"address"}],"outputs":[{"name":"","type":"uint256","internalType":"uint256"}],"stateMutability":"view"},{"type":"function","name":"maxWithdraw","inputs":[{"name":"owner","type":"address","internalType":"address"}],"outputs":[{"name":"","type":"uint256","internalType":"uint256"}],"stateMutability":"view"},{"type":"function","name":"mint","inputs":[{"name":"shares","type":"uint256","internalType":"uint256"},{"name":"receiver","type":"address","internalType":"address"}],"outputs":[{"name":"","type":"uint256","internalType":"uint256"}],"stateMutability":"nonpayable"},{"type":"function","name":"name","inputs":[],"outputs":[{"name":"","type":"string","internalType":"string"}],"stateMutability":"view"},{"type":"function","name":"owner","inputs":[],"outputs":[{"name":"","type":"address","internalType":"address"}],"stateMutability":"view"},{"type":"function","name":"previewDeposit","inputs":[{"name":"assets","type":"uint256","internalType":"uint256"}],"outputs":[{"name":"","type":"uint256","internalType":"uint256"}],"stateMutability":"view"},{"type":"function","name":"previewMint","inputs":[{"name":"shares","type":"uint256","internalType":"uint256"}],"outputs":[{"name":"","type":"uint256","internalType":"uint256"}],"stateMutability":"view"},{"type":"function","name":"previewRedeem","inputs":[{"name":"shares","type":"uint256","internalType":"uint256"}],"outputs":[{"name":"","type":"uint256","internalType":"uint256"}],"stateMutability":"view"},{"type":"function","name":"previewWithdraw","inputs":[{"name":"assets","type":"uint256","internalType":"uint256"}],"outputs":[{"name":"","type":"uint256","internalType":"uint256"}],"stateMutability":"view"},{"type":"function","name":"principalOf","inputs":[{"name":"","type":"address","internalType":"address"}],"outputs":[{"name":"","type":"uint256","internalType":"uint256"}],"stateMutability":"view"},{"type":"function","name":"redeem","inputs":[{"name":"shares","type":"uint256","internalType":"uint256"},{"name":"receiver","type":"address","internalType":"address"},{"name":"owner","type":"address","internalType":"address"}],"outputs":[{"name":"","type":"uint256","internalType":"uint256"}],"stateMutability":"nonpayable"},{"type":"function","name":"renounceOwnership","inputs":[],"outputs":[],"stateMutability":"nonpayable"},{"type":"function","name":"setAPY","inputs":[{"name":"_newAPY","type":"uint256","internalType":"uint256"}],"outputs":[],"stateMutability":"nonpayable"},{"type":"function","name":"simulateYield","inputs":[{"name":"amount","type":"uint256","internalType":"uint256"}],"outputs":[],"stateMutability":"nonpayable"},{"type":"function","name":"symbol","inputs":[],"outputs":[{"name":"","type":"string","internalType":"string"}],"stateMutability":"view"},{"type":"function","name":"totalAssets","inputs":[],"outputs":[{"name":"","type":"uint256","internalType":"uint256"}],"stateMutability":"view"},{"type":"function","name":"totalPrincipal","inputs":[],"outputs":[{"name":"","type":"uint256","internalType":"uint256"}],"stateMutability":"view"},{"type":"function","name":"totalSupply","inputs":[],"outputs":[{"name":"","type":"uint256","internalType":"uint256"}],"stateMutability":"view"},{"type":"function","name":"totalYield","inputs":[],"outputs":[{"name":"","type":"uint256","internalType":"uint256"}],"stateMutability":"view"},{"type":"function","name":"transfer","inputs":[{"name":"to","type":"address","internalType":"address"},{"name":"value","type":"uint256","internalType":"uint256"}],"outputs":[{"name":"","type":"bool","internalType":"bool"}],"stateMutability":"nonpayable"},{"type":"function","name":"transferFrom","inputs":[{"name":"from","type":"address","internalType":"address"},{"name":"to","type":"address","internalType":"address"},{"name":"value","type":"uint256","internalType":"uint256"}],"outputs":[{"name":"","type":"bool","internalType":"bool"}],"stateMutability":"nonpayable"},{"type":"function","name":"transferOwnership","inputs":[{"name":"newOwner","type":"address","internalType":"address"}],"outputs":[],"stateMutability":"nonpayable"},{"type":"function","name":"withdraw","inputs":[{"name":"assets","type":"uint256","internalType":"uint256"},{"name":"receiver","type":"address","internalType":"address"},{"name":"owner","type":"address","internalType":"address"}],"outputs":[{"name":"","type":"uint256","internalType":"uint256"}],"stateMutability":"nonpayable"},{"type":"function","name":"yieldDebt","inputs":[{"name":"","type":"address","internalType":"address"}],"outputs":[{"name":"","type":"uint256","internalType":"uint256"}],"stateMutability":"view"},{"type":"function","name":"yieldOf","inputs":[{"name":"user","type":"address","internalType":"address"}],"outputs":[{"name":"","type":"uint256","internalType":"uint256"}],"stateMutability":"view"},{"type":"event","name":"APYUpdated","inputs":[{"name":"oldAPY","type":"uint256","indexed":false,"internalType":"uint256"},{"name":"newAPY","type":"uint256","indexed":false,"internalType":"uint256"}],"anonymous":false},{"type":"event","name":"Approval","inputs":[{"name":"owner","type":"address","indexed":true,"internalType":"address"},{"name":"spender","type":"address","indexed":true,"internalType":"address"},{"name":"value","type":"uint256","indexed":false,"internalType":"uint256"}],"anonymous":false},{"type":"event","name":"Deposit","inputs":[{"name":"sender","type":"address","indexed":true,"internalType":"address"},{"name":"owner","type":"address","indexed":true,"internalType":"address"},{"name":"assets","type":"uint256","indexed":false,"internalType":"uint256"},{"name":"shares","type":"uint256","indexed":false,"internalType":"uint256"}],"anonymous":false},{"type":"event","name":"OwnershipTransferred","inputs":[{"name":"previousOwner","type":"address","indexed":true,"internalType":"address"},{"name":"newOwner","type":"address","indexed":true,"internalType":"address"}],"anonymous":false},{"type":"event","name":"PrincipalWithdrawn","inputs":[{"name":"user","type":"address","indexed":true,"internalType":"address"},{"name":"amount","type":"uint256","indexed":false,"internalType":"uint256"}],"anonymous":false},{"type":"event","name":"Transfer","inputs":[{"name":"from","type":"address","indexed":true,"internalType":"address"},{"name":"to","type":"address","indexed":true,"internalType":"address"},{"name":"value","type":"uint256","indexed":false,"internalType":"uint256"}],"anonymous":false},{"type":"event","name":"Withdraw","inputs":[{"name":"sender","type":"address","indexed":true,"internalType":"address"},{"name":"receiver","type":"address","indexed":true,"internalType":"address"},{"name":"owner","type":"address","indexed":true,"internalType":"address"},{"name":"assets","type":"uint256","indexed":false,"internalType":"uint256"},{"name":"shares","type":"uint256","indexed":false,"internalType":"uint256"}],"anonymous":false},{"type":"event","name":"YieldGenerated","inputs":[{"name":"totalYield","type":"uint256","indexed":false,"internalType":"uint256"},{"name":"timestamp","type":"uint256","indexed":false,"internalType":"uint256"}],"anonymous":false},{"type":"event","name":"YieldWithdrawn","inputs":[{"name":"user","type":"address","indexed":true,"internalType":"address"},{"name":"amount","type":"uint256","indexed":false,"internalType":"uint256"}],"anonymous":false},{"type":"error","name":"ERC20InsufficientAllowance","inputs":[{"name":"spender","type":"address","internalType":"address"},{"name":"allowance","type":"uint256","internalType":"uint256"},{"name":"needed","type":"uint256","internalType":"uint256"}]},{"type":"error","name":"ERC20InsufficientBalance","inputs":[{"name":"sender","type":"address","internalType":"address"},{"name":"balance","type":"uint256","internalType":"uint256"},{"name":"needed","type":"uint256","internalType":"uint256"}]},{"type":"error","name":"ERC20InvalidApprover","inputs":[{"name":"approver","type":"address","internalType":"address"}]},{"type":"error","name":"ERC20InvalidReceiver","inputs":[{"name":"receiver","type":"address","internalType":"address"}]},{"type":"error","name":"ERC20InvalidSender","inputs":[{"name":"sender","type":"address","internalType":"address"}]},{"type":"error","name":"ERC20InvalidSpender","inputs":[{"name":"spender","type":"address","internalType":"address"}]},{"type":"error","name":"ERC4626ExceededMaxDeposit","inputs":[{"name":"receiver","type":"address","internalType":"address"},{"name":"assets","type":"uint256","internalType":"uint256"},{"name":"max","type":"uint256","internalType":"uint256"}]},{"type":"error","name":"ERC4626ExceededMaxMint","inputs":[{"name":"receiver","type":"address","internalType":"address"},{"name":"shares","type":"uint256","internalType":"uint256"},{"name":"max","type":"uint256","internalType":"uint256"}]},{"type":"error","name":"ERC4626ExceededMaxRedeem","inputs":[{"name":"owner","type":"address","internalType":"address"},{"name":"shares","type":"uint256","internalType":"uint256"},{"name":"max","type":"uint256","internalType":"uint256"}]},{"type":"error","name":"ERC4626ExceededMaxWithdraw","inputs":[{"name":"owner","type":"address","internalType":"address"},{"name":"assets","type":"uint256","internalType":"uint256"},{"name":"max","type":"uint256","internalType":"uint256"}]},{"type":"error","name":"OwnableInvalidOwner","inputs":[{"name":"owner","type":"address","internalType":"address"}]},{"type":"error","name":"OwnableUnauthorizedAccount","inputs":[{"name":"account","type":"address","internalType":"address"}]},{"type":"error","name":"SafeERC20FailedOperation","inputs":[{"name":"token","type":"address","internalType":"address"}]}],"bytecode":{"object":"0x60c0806040523461043b57611e2a803803809161001c828561043f565b833981019060808183031261043b5780516001600160a01b038116810361043b5760208201516001600160401b03811161043b578361005c91840161047d565b60408301519093906001600160401b03811161043b5760609161008091850161047d565b92015183519091906001600160401b03811161034c57600354600181811c91168015610431575b602082101461032e57601f81116103ce575b50602094601f821160011461036b579481929394955f92610360575b50508160011b915f199060031b1c1916176003555b82516001600160401b03811161034c57600454600181811c91168015610342575b602082101461032e57601f81116102cb575b506020601f821160011461026857819293945f9261025d575b50508160011b915f199060031b1c1916176004555b610154816104c3565b9015610255575b60a05260805233156102425760058054336001600160a01b03198216811790925560405191906001600160a01b03167f8be0079c531659141344cd1fd0a4f28419497f9722a3daafe3b4186f6b6457e05f80a361271082116101f55750600855426009556040516118c39081610567823960805181818161027501528181610b1f0152818161100501526115ae015260a05181610b620152f35b62461bcd60e51b815260206004820152602260248201527f5969656c645661756c743a204150592063616e6e6f7420657863656564203130604482015261302560f01b6064820152608490fd5b631e4fbdf760e01b5f525f60045260245ffd5b50601261015b565b015190505f80610136565b601f1982169060045f52805f20915f5b8181106102b35750958360019596971061029b575b505050811b0160045561014b565b01515f1960f88460031b161c191690555f808061028d565b9192602060018192868b015181550194019201610278565b60045f527f8a35acfbc15ff81a39ae7d344fd709f28e8600b4aa8c65c6b64bfe7fe36bd19b601f830160051c81019160208410610324575b601f0160051c01905b818110610319575061011d565b5f815560010161030c565b9091508190610303565b634e487b7160e01b5f52602260045260245ffd5b90607f169061010b565b634e487b7160e01b5f52604160045260245ffd5b015190505f806100d5565b601f1982169560035f52805f20915f5b8881106103b65750836001959697981061039e575b505050811b016003556100ea565b01515f1960f88460031b161c191690555f8080610390565b9192602060018192868501518155019401920161037b565b60035f527fc2575a0e9e593c00f959f8c92f12db2869c3395a3b0502d05e2516446f71f85b601f830160051c81019160208410610427575b601f0160051c01905b81811061041c57506100b9565b5f815560010161040f565b9091508190610406565b90607f16906100a7565b5f80fd5b601f909101601f19168101906001600160401b0382119082101761034c57604052565b6001600160401b03811161034c57601f01601f191660200190565b81601f8201121561043b5780519061049482610462565b926104a2604051948561043f565b8284526020838301011161043b57815f9260208093018386015e8301015290565b5f8091604051602081019063313ce56760e01b8252600481526104e760248261043f565b51916001600160a01b03165afa3d1561055e573d9061050582610462565b91610513604051938461043f565b82523d5f602084013e5b80610552575b61052f575b505f905f90565b60208180518101031261043b576020015160ff8111610528579060ff6001921690565b50602081511015610523565b60609061051d56fe60806040526004361015610011575f80fd5b5f803560e01c80630141820514610e3b57806301e1d11414610e2157806306fdde0314610d6657806307a2d13a14610ae8578063095ea7b314610cbe5780630a28a47714610ca057806318160ddd14610c8357806323b872dd14610c4b57806324f45e6714610b95578063313ce56714610b4e57806338d52e0f14610b0a578063402d267d146103fc5780634b1533b214610aed5780634cdad50614610ae857806361e20a1c14610ab05780636e553f6514610a4657806370a0823114610399578063715018a6146109eb5780637745a1db146109c85780638da5cb5b146109a05780638f8c8aee1461098357806393a6983d1461096657806394bf804d146108fc57806395d89b41146107f857806396445f00146107db57806396a2d5b0146107a3578063a9059cbb14610772578063b3d7f6b914610754578063b460af94146105cd578063ba08765214610401578063c63d75b6146103fc578063c6e6f59214610247578063ce96cb77146103d9578063d905777e14610399578063dd62ed3e14610349578063e7ca856d1461024c578063ef8b30f7146102475763f2fde38b146101bc575f80fd5b34610244576020366003190112610244576101d5610e9d565b6101dd61136e565b6001600160a01b0316801561023057600580546001600160a01b0319811683179091556001600160a01b03167f8be0079c531659141344cd1fd0a4f28419497f9722a3daafe3b4186f6b6457e08380a380f35b631e4fbdf760e01b82526004829052602482fd5b80fd5b610f28565b50346102f35760203660031901126102f35760043561026961136e565b600254806102f7575b507f00000000000000000000000000000000000000000000000000000000000000006001600160a01b0316803b156102f3576040516340c10f1960e01b815230600482015260248101929092525f908290604490829084905af180156102e8576102da575080f35b6102e691505f90610f76565b005b6040513d5f823e3d90fd5b5f80fd5b670de0b6b3a76400008202828104670de0b6b3a764000014831517156103355761032c9161032491610fbf565b600a54610fdd565b600a555f610272565b634e487b7160e01b5f52601160045260245ffd5b346102f35760403660031901126102f357610362610e9d565b61036a610eb3565b6001600160a01b039182165f908152600160209081526040808320949093168252928352819020549051908152f35b346102f35760203660031901126102f35760206103d16103b7610e9d565b6001600160a01b03165f9081526020819052604090205490565b604051908152f35b346102f35760203660031901126102f35760206103d16103f7610e9d565b611121565b610ec9565b346102f35761040f36610eee565b90610418611395565b60018060a01b03821690815f525f60205260405f20548085116105b357508361044e91610445859661116a565b94859133611670565b604051637745a1db60e01b81526004810182905292602084602481305afa9081156102e8575f9161057e575b602094508282851083861802808418906104948288610f46565b946104a6861515958661051f5761144e565b036104ee575b50506104bd575b5050604051908152f35b837f6a0d6da0beb3b4dc509c4559b55ca29b5f90af6d351a3f9365bb5ab6b572c96091604051908152a282806104b3565b867faed495d70193dd915b96156dc90595c95aa5cc4f6985a2cd79286232d96ae8e291604051908152a282866104ac565b5f86815260068c526040902054881161057857855f5260068b526105478860405f2054610f46565b5f87815260068d526040902055600754888082106105705761056891610f46565b60075561144e565b50505f610568565b5f610547565b90506020843d6020116105ab575b8161059960209383610f76565b810103126102f357602093519061047a565b3d915061058c565b8483632e52afbb60e21b5f5260045260245260445260645ffd5b346102f3576105db36610eee565b90916105e5611395565b604051637745a1db60e01b81526001600160a01b0383166004820181905290939091602085602481305afa9485156102e8575f95610720575b5084811085821802808618956106348784610f46565b938415159384610690575b61064888611121565b8082116106765750916104a6886106718996948661066860209e98611197565b9c8d9233611670565b61144e565b9087633fa733bb60e21b5f5260045260245260445260645ffd5b865f5260066020528560405f2054106106d057865f52600660205260405f206106ba878254610f46565b90556106c886600754610f46565b60075561063f565b60405162461bcd60e51b815260206004820152602260248201527f5969656c645661756c743a20496e73756666696369656e74207072696e636970604482015261185b60f21b6064820152608490fd5b9094506020813d60201161074c575b8161073c60209383610f76565b810103126102f35751938561061e565b3d915061072f565b346102f35760203660031901126102f35760206103d160043561113c565b346102f35760403660031901126102f35761079861078e610e9d565b6024359033611295565b602060405160018152f35b346102f35760203660031901126102f3576001600160a01b036107c4610e9d565b165f52600b602052602060405f2054604051908152f35b346102f3575f3660031901126102f3576020600a54604051908152f35b346102f3575f3660031901126102f3576040515f6004548060011c906001811680156108f2575b6020831081146108de578285529081156108ba575060011461085c575b6108588361084c81850382610f76565b60405191829182610e55565b0390f35b91905060045f527f8a35acfbc15ff81a39ae7d344fd709f28e8600b4aa8c65c6b64bfe7fe36bd19b915f905b8082106108a05750909150810160200161084c61083c565b919260018160209254838588010152019101909291610888565b60ff191660208086019190915291151560051b8401909101915061084c905061083c565b634e487b7160e01b5f52602260045260245ffd5b91607f169161081f565b346102f35760403660031901126102f35760206004356103d161091d610eb3565b610925611395565b61093a6109318461113c565b93848333611567565b60018060a01b0381165f526006845260405f20610958848254610fdd565b905561056883600754610fdd565b346102f3575f3660031901126102f3576020600854604051908152f35b346102f3575f3660031901126102f3576020600954604051908152f35b346102f3575f3660031901126102f3576005546040516001600160a01b039091168152602090f35b346102f35760203660031901126102f35760206103d16109e6610e9d565b6110b0565b346102f3575f3660031901126102f357610a0361136e565b600580546001600160a01b031981169091555f906001600160a01b03167f8be0079c531659141344cd1fd0a4f28419497f9722a3daafe3b4186f6b6457e08280a3005b346102f35760403660031901126102f35760206004356103d1610a67610eb3565b610a6f611395565b610568610a7b846111c5565b93610a8885828533611567565b60018060a01b0383165f526006865260405f20610aa6828254610fdd565b9055600754610fdd565b346102f35760203660031901126102f3576001600160a01b03610ad1610e9d565b165f526006602052602060405f2054604051908152f35b610e7f565b346102f3575f3660031901126102f3576020600754604051908152f35b346102f3575f3660031901126102f3576040517f00000000000000000000000000000000000000000000000000000000000000006001600160a01b03168152602090f35b346102f3575f3660031901126102f35760ff7f00000000000000000000000000000000000000000000000000000000000000001660ff811161033557602090604051908152f35b346102f35760203660031901126102f357600435610bb161136e565b6127108111610bfb5760407f787a1fca55641ce34a438271930bbb9401df20db2b4f510d4f252227d85df43d91610be6611395565b600854908060085582519182526020820152a1005b60405162461bcd60e51b815260206004820152602260248201527f5969656c645661756c743a204150592063616e6e6f7420657863656564203130604482015261302560f01b6064820152608490fd5b346102f35760603660031901126102f357610798610c67610e9d565b610c6f610eb3565b60443591610c7e8333836111f2565b611295565b346102f3575f3660031901126102f3576020600254604051908152f35b346102f35760203660031901126102f35760206103d1600435611197565b346102f35760403660031901126102f357610cd7610e9d565b602435903315610d53576001600160a01b0316908115610d4057335f52600160205260405f20825f526020528060405f20556040519081527f8c5be1e5ebec7d5bd14f71427d1e84f3dd0314c0f7b2291e5b200ac8c7c3b92560203392a3602060405160018152f35b634a1406b160e11b5f525f60045260245ffd5b63e602df0560e01b5f525f60045260245ffd5b346102f3575f3660031901126102f3576040515f6003548060011c90600181168015610e17575b6020831081146108de578285529081156108ba5750600114610db9576108588361084c81850382610f76565b91905060035f527fc2575a0e9e593c00f959f8c92f12db2869c3395a3b0502d05e2516446f71f85b915f905b808210610dfd5750909150810160200161084c61083c565b919260018160209254838588010152019101909291610de5565b91607f1691610d8d565b346102f3575f3660031901126102f35760206103d1610fea565b346102f3575f3660031901126102f35760206103d1610f53565b602060409281835280519182918282860152018484015e5f828201840152601f01601f1916010190565b346102f35760203660031901126102f35760206103d160043561116a565b600435906001600160a01b03821682036102f357565b602435906001600160a01b03821682036102f357565b346102f35760203660031901126102f357610ee2610e9d565b5060206040515f198152f35b60609060031901126102f357600435906024356001600160a01b03811681036102f357906044356001600160a01b03811681036102f35790565b346102f35760203660031901126102f35760206103d16004356111c5565b9190820391821161033557565b60025415610f7257610f6f610f66610fea565b60075490610f46565b90565b5f90565b90601f8019910116810190811067ffffffffffffffff821117610f9857604052565b634e487b7160e01b5f52604160045260245ffd5b8181029291811591840414171561033557565b8115610fc9570490565b634e487b7160e01b5f52601260045260245ffd5b9190820180921161033557565b6040516370a0823160e01b81523060048201526020816024817f00000000000000000000000000000000000000000000000000000000000000006001600160a01b03165afa9081156102e8575f9161107e575b50600754801561107a579064496cebb800611073610f6f9361106e61106460095442610f46565b9160085490610fac565b610fac565b0490610fdd565b5090565b90506020813d6020116110a8575b8161109960209383610f76565b810103126102f357515f61103d565b3d915061108c565b6002541561111c576110c0611487565b9060018060a01b031690815f525f60205260405f2054801561111557670de0b6b3a7640000916110ef91610fac565b04905f52600b60205260405f20548082115f1461110f57610f6f91610f46565b50505f90565b5050505f90565b505f90565b60018060a01b03165f525f602052610f6f60405f205461116a565b611144610fea565b9060018201809211610335576002546001810180911161033557610f6f92600192611509565b611172610fea565b9060018201809211610335576002546001810180911161033557610f6f925f92611509565b6002549060018201809211610335576111ae610fea565b6001810180911161033557610f6f92600192611509565b6002549060018201809211610335576111dc610fea565b6001810180911161033557610f6f925f92611509565b6001600160a01b039081165f818152600160209081526040808320948616835293905291909120549291905f19841061122c575b50505050565b828410611272578015610d53576001600160a01b03821615610d40575f52600160205260405f209060018060a01b03165f5260205260405f20910390555f808080611226565b508290637dc7a0d960e11b5f5260018060a01b031660045260245260445260645ffd5b9192916001600160a01b038116801561135b576001600160a01b038316908115611348576112c1611395565b805f525f60205260405f205486811061132e57907fddf252ad1be2c89b69c2b068fc378daa952ba7f163c4a11628f55a4df523b3ef60208861132c9899610671979695855f525f84520360405f2055845f525f825260405f20818154019055604051908152a361144e565b565b869163391434e360e21b5f5260045260245260445260645ffd5b63ec442f0560e01b5f525f60045260245ffd5b634b637e8f60e11b5f525f60045260245ffd5b6005546001600160a01b0316330361138257565b63118cdaa760e01b5f523360045260245ffd5b6002548015611447576113aa60095442610f46565b8015611443576113c964496cebb8009161106e60075460085490610fac565b0480159081156113dd575b50505042600955565b670de0b6b3a7640000810291818304670de0b6b3a76400001417156103355761142c6103247f30c16c13f64000649ac450d7013dfc2fc1f6ddce4b92b5a06262c7288602031694604094610fbf565b600a558151908152426020820152a15f80806113d4565b5050565b5042600955565b60018060a01b0316805f525f602052670de0b6b3a764000061147760405f2054600a5490610fac565b04905f52600b60205260405f2055565b60025480156115025761149c60095442610f46565b80156114fa576114bb64496cebb8009161106e60075460085490610fac565b048015806114ee57670de0b6b3a76400008202918204670de0b6b3a764000014171561033557610f6f9161032491610fbf565b505050610f6f5f610324565b5050600a5490565b50600a5490565b9291611516818386611797565b92600481101561155357600180911614918261153c575b5050610f6f9250151590610fdd565b9080925015610fc957610f6f930915155f8061152d565b634e487b7160e01b5f52602160045260245ffd5b6040516323b872dd60e01b60208201526001600160a01b039091166024820181905230604483015260648083018590528252929391906115db906115ac608482610f76565b7f00000000000000000000000000000000000000000000000000000000000000006001600160a01b0316611835565b6001600160a01b03811693841561134857826116636040936116207fdcbc1c05240f31ff3ad067ef1ee35ce4997762752e3a095284754544f4c709d796600254610fdd565b600255875f525f602052845f20838154019055875f7fddf252ad1be2c89b69c2b068fc378daa952ba7f163c4a11628f55a4df523b3ef60208851878152a361144e565b82519182526020820152a3565b6001600160a01b038084169590821693909182878603611786575b5050851561135b5761169b611395565b855f525f60205260405f205482811061176b579161171d7ffbde797d201c681b91056529119e0b02407c7bb96a4a2c75c01fc9667232c8db9492826040958a5f525f60205203855f205582600254036002555f897fddf252ad1be2c89b69c2b068fc378daa952ba7f163c4a11628f55a4df523b3ef60208851878152a361144e565b825163a9059cbb60e01b60208201526001600160a01b038316602482015260448082018890528152611754906115ac606482610f76565b825195865260208601526001600160a01b031693a4565b90508563391434e360e21b5f5260045260245260445260645ffd5b61179091836111f2565b5f8261168b565b90915f19838309928083029283808610950394808603951461182857848311156118105790829109815f0382168092046002816003021880820260020302808202600203028082026002030280820260020302808202600203028091026002030293600183805f03040190848311900302920304170290565b82634e487b715f52156003026011186020526024601cfd5b505090610f6f9250610fbf565b905f602091828151910182855af1156102e8575f513d61188457506001600160a01b0381163b155b6118645750565b635274afe760e01b5f9081526001600160a01b0391909116600452602490fd5b6001141561185d56fea2646970667358221220370bf6d4aef9b18b4e353f795c0f7654e331246f1d928fd79d3317616ac3ac8864736f6c634300081a0033","linkReferences":{}},"methodIdentifiers":{"accumulatedYieldPerShare()":"96445f00","allowance(address,address)":"dd62ed3e","approve(address,uint256)":"095ea7b3","apyBasisPoints()":"93a6983d","asset()":"38d52e0f","balanceOf(address)":"70a08231","convertToAssets(uint256)":"07a2d13a","convertToShares(uint256)":"c6e6f592","decimals()":"313ce567","deposit(uint256,address)":"6e553f65","lastYieldUpdate()":"8f8c8aee","maxDeposit(address)":"402d267d","maxMint(address)":"c63d75b6","maxRedeem(address)":"d905777e","maxWithdraw(address)":"ce96cb77","mint(uint256,address)":"94bf804d","name()":"06fdde03","owner()":"8da5cb5b","previewDeposit(uint256)":"ef8b30f7","previewMint(uint256)":"b3d7f6b9","previewRedeem(uint256)":"4cdad506","previewWithdraw(uint256)":"0a28a477","principalOf(address)":"61e20a1c","redeem(uint256,address,address)":"ba087652","renounceOwnership()":"715018a6","setAPY(uint256)":"24f45e67","simulateYield(uint256)":"e7ca856d","symbol()":"95d89b41","totalAssets()":"01e1d114","totalPrincipal()":"4b1533b2","totalSupply()":"18160ddd","totalYield()":"01418205","transfer(address,uint256)":"a9059cbb","transferFrom(address,address,uint256)":"23b872dd","transferOwnership(address)":"f2fde38b","withdraw(uint256,address,address)":"b460af94","yieldDebt(address)":"96a2d5b0","yieldOf(address)":"7745a1db"},"id":40}